{
	"data": {
		"bytecode": {
			"linkReferences": {},
			"object": "60806040526729a2241af62c0000600b556305a39a80600c5562015180600d55673782dace9d900000600e55671bc16d674ec80000600f5562093a8060135560006015556022805460ff191660011790553480156200005d57600080fd5b50604051620036793803806200367983398101604081905262000080916200025f565b866001600160a01b038116620000dd5760405162461bcd60e51b815260206004820152601960248201527f4f776e657220616464726573732063616e6e6f7420626520300000000000000060448201526064015b60405180910390fd5b600080546001600160a01b0319166001600160a01b03831690811782556040805192835260208301919091527fb532073b38c83145e3e5135377a08bf9aab55bc0fd7c1179cd4fb995d2a5159c910160405180910390a1506001600255600480546001600160a01b03199081166001600160a01b038981169190911790925560058054821688841617905560068054821687841617905560038054821684841617905560078054909116918416919091179055600060118190556012556022805462ffff001916905542600a819055601354620001c79190620001d8602090811b62001e9d17901c565b600955506200031b95505050505050565b600080620001e78385620002f4565b9050838110156200023b5760405162461bcd60e51b815260206004820152601b60248201527f536166654d6174683a206164646974696f6e206f766572666c6f7700000000006044820152606401620000d4565b9392505050565b80516001600160a01b03811681146200025a57600080fd5b919050565b600080600080600080600060e0888a0312156200027b57600080fd5b620002868862000242565b9650620002966020890162000242565b9550620002a66040890162000242565b9450620002b66060890162000242565b9350620002c66080890162000242565b9250620002d660a0890162000242565b9150620002e660c0890162000242565b905092959891949750929550565b600082198211156200031657634e487b7160e01b600052601160045260246000fd5b500190565b61334e806200032b6000396000f3fe608060405234801561001057600080fd5b50600436106103e55760003560e01c806392eefe9b1161020a578063d239f00311610125578063ebe2b12b116100b8578063f9706f4411610087578063f9706f44146108ad578063fce6fd13146108c0578063fe271f5f146108d2578063ff0063fc146108f2578063fff6cae9146108fb57600080fd5b8063ebe2b12b14610866578063ed48f6f71461086f578063ee89e02f14610877578063f12f14471461089a57600080fd5b8063e01f62bf116100f4578063e01f62bf1461082f578063e1ba95d214610837578063e9f2838e1461083f578063eb3c209e1461085357600080fd5b8063d239f00314610801578063d9f96e8d14610574578063dc6663c714610809578063de9853ad1461081c57600080fd5b8063b94c4dcb1161019d578063c8f33c911161016c578063c8f33c91146107d4578063cc1a378f146107dd578063cd3daf9d146107f0578063cdc82e80146107f857600080fd5b8063b94c4dcb14610782578063bbb781cc1461078b578063bdacb303146107a1578063c126d1aa146107b457600080fd5b80639c5303eb116101d95780639c5303eb1461074b578063a1ec508a1461075e578063a2217bc514610767578063af00f4e21461076f57600080fd5b806392eefe9b146106e6578063941d9f65146106f95780639637927f1461070c5780639b8c15a81461071f57600080fd5b80633d18b9121161030557806367feda3e1161029857806379ba50971161026757806379ba5097146106825780637b31c19a1461068a5780638980f11f146106925780638bad86a7146106a55780638da5cb5b146106d357600080fd5b806367feda3e146106335780636a231b03146106465780636ce46bc3146106665780636e27cef91461067957600080fd5b806352732bc8116102d457806352732bc8146105b957806353a47bb7146105f3578063643504671461061e57806364f2c0601461062b57600080fd5b80633d18b9121461056c5780634703dace1461057457806351654f7f1461059d57806351e3fc17146105a657600080fd5b80631e090f011161037d578063323331ca1161034c578063323331ca1461051d57806336f89af214610532578063386a95251461055b5780633b8105b31461056457600080fd5b80631e090f01146104ae57806328ef934e146104ce5780632ca1a895146104e157806331ca208c146104ea57600080fd5b8063170feb76116103b9578063170feb761461046d57806317b18c89146104805780631b3e870a146104935780631c1f78eb146104a657600080fd5b80628cc262146103ea5780630d7bac4f14610417578063144e8034146104385780631627540c14610458575b600080fd5b6103fd6103f8366004612f53565b610903565b604080519283526020830191909152015b60405180910390f35b61042a610425366004612f6e565b610a23565b60405190815260200161040e565b61042a610446366004612f53565b60166020526000908152604090205481565b61046b610466366004612f53565b610a7c565b005b61042a61047b366004612f53565b610b48565b61046b61048e366004612f87565b610c2d565b61046b6104a1366004612f53565b610c69565b6103fd610d2c565b6104c16104bc366004612f53565b610d5d565b60405161040e9190612fa9565b61046b6104dc366004613017565b610e04565b61042a60115481565b61050d6104f8366004612f53565b60216020526000908152604090205460ff1681565b604051901515815260200161040e565b60225461050d90640100000000900460ff1681565b61042a610540366004612f53565b6001600160a01b03166000908152601d602052604090205490565b61042a60135481565b61046b610ed0565b6103fd610f34565b61042a610582366004612f53565b6001600160a01b03166000908152601c602052604090205490565b61042a600f5481565b61046b6105b4366004612f6e565b610fcf565b61046b6105c7366004612f53565b336000908152602080805260408083206001600160a01b0394909416835292905220805460ff19169055565b600154610606906001600160a01b031681565b6040516001600160a01b03909116815260200161040e565b60225461050d9060ff1681565b601b5461042a565b600854610606906001600160a01b031681565b61042a610654366004612f53565b60196020526000908152604090205481565b61046b610674366004613050565b611057565b61042a600d5481565b61046b611207565b61046b6112f1565b61046b6106a036600461307c565b611353565b6106b86106b3366004612f53565b61148e565b6040805193845260208401929092529082015260600161040e565b600054610606906001600160a01b031681565b61046b6106f4366004612f53565b61163e565b61046b610707366004612f53565b61169f565b60225461050d9062010000900460ff1681565b61050d61072d3660046130a6565b60208080526000928352604080842090915290825290205460ff1681565b61046b610759366004612f53565b611707565b61042a60125481565b61046b61176a565b61046b61077d366004612f87565b6117c6565b61042a600c5481565b60225461050d9065010000000000900460ff1681565b61046b6107af366004612f53565b611914565b61042a6107c2366004612f53565b60186020526000908152604090205481565b61042a600a5481565b61046b6107eb366004612f6e565b611975565b6103fd611a83565b61042a600b5481565b61046b611b12565b600754610606906001600160a01b031681565b61046b61082a3660046130e7565b611b72565b601a5461042a565b61046b611c0c565b60225461050d906301000000900460ff1681565b61046b61086136600461307c565b611c6a565b61042a60095481565b61046b611d32565b61050d610885366004612f53565b601f6020526000908152604090205460ff1681565b61046b6108a8366004612f53565b611d96565b61042a6108bb366004612f53565b611e2d565b60225461050d90610100900460ff1681565b61042a6108e0366004612f53565b60176020526000908152604090205481565b61042a600e5481565b61046b611e60565b600080600080610911611a83565b6001600160a01b0387166000908152601d60205260409020549193509150610940575060009485945092505050565b6001600160a01b0385166000908152601860209081526040808320546016909252909120546109b291906109ac90670de0b6b3a7640000906109a690610987908890611f03565b6001600160a01b038b166000908152601d602052604090205490611f45565b90611fc4565b90611e9d565b6001600160a01b038616600090815260196020908152604080832054601790925290912054610a1891906109ac90670de0b6b3a7640000906109a6906109f9908890611f03565b6001600160a01b038c166000908152601d602052604090205490611f45565b935093505050915091565b600080610a65610a56600c546109a6610a4f670de0b6b3a7640000600b54611f0390919063ffffffff16565b8790611f45565b670de0b6b3a764000090611e9d565b9050600b54811115610a765750600b545b92915050565b6000546001600160a01b03163314610af35760405162461bcd60e51b815260206004820152602f60248201527f4f6e6c792074686520636f6e7472616374206f776e6572206d6179207065726660448201526e37b936903a3434b99030b1ba34b7b760891b60648201526084015b60405180910390fd5b600180546001600160a01b0319166001600160a01b0383169081179091556040519081527f906a1c6bd7e3091ea86693dd029a831c19049ce77f1dce2ce0bab1cacbabce22906020015b60405180910390a150565b600080610b5483611e2d565b90508015610c24576003546040516370a0823160e01b81526001600160a01b038581166004830152600092610be69285926109a692670de0b6b3a7640000929116906370a0823190602401602060405180830381865afa158015610bbc573d6000803e3d6000fd5b505050506040513d601f19601f82011682018060405250810190610be09190613120565b90611f45565b90506000610c0b670de0b6b3a76400006109a6600f5485611f4590919063ffffffff16565b9050600f54811115610c1c5750600f545b949350505050565b50600092915050565b600280541415610c4f5760405162461bcd60e51b8152600401610aea90613139565b60028055610c603380848442612006565b50506001600255565b6000546001600160a01b0316331480610c8c57506007546001600160a01b031633145b610ca85760405162461bcd60e51b8152600401610aea90613170565b6001600160a01b0381166000908152601f602052604090205460ff161515600114610d0b5760405162461bcd60e51b81526020600482015260136024820152721059191c995cdcc81b9bdb995e1a5cdd185b9d606a1b6044820152606401610aea565b6001600160a01b03166000908152601f60205260409020805460ff19169055565b600080610d46601354601154611f4590919063ffffffff16565b601354601254610d5591611f45565b915091509091565b6001600160a01b0381166000908152601e60209081526040808320805482518185028101850190935280835260609492939192909184015b82821015610df957838290600052602060002090600502016040518060a00160405290816000820154815260200160018201548152602001600282015481526020016003820154815260200160048201548152505081526020019060010190610d95565b505050509050919050565b60225460ff610100909104161515600114610e315760405162461bcd60e51b8152600401610aea9061319f565b6001600160a01b03841660009081526020808052604080832033845290915290205460ff168015610e715750336000908152601f602052604090205460ff165b610ebd5760405162461bcd60e51b815260206004820152601a60248201527f4d69672e20696e76616c6964206f7220756e617070726f7665640000000000006044820152606401610aea565b610eca8433858585612006565b50505050565b6000546001600160a01b0316331480610ef357506007546001600160a01b031633145b610f0f5760405162461bcd60e51b8152600401610aea90613170565b6022805465ff0000000000198116650100000000009182900460ff1615909102179055565b600080600280541415610f595760405162461bcd60e51b8152600401610aea90613139565b60028055602254640100000000900460ff1615610fb85760405162461bcd60e51b815260206004820152601960248201527f5265776172647320636f6c6c656374696f6e20706175736564000000000000006044820152606401610aea565b610fc233336123bf565b9150915060016002559091565b600280541415610ff15760405162461bcd60e51b8152600401610aea90613139565b600280556022546301000000900460ff16156110445760405162461bcd60e51b815260206004820152601260248201527115da5d1a191c985dd85b1cc81c185d5cd95960721b6044820152606401610aea565b61104f3333836125cd565b506001600255565b6000546001600160a01b031633148061107a57506007546001600160a01b031633145b6110965760405162461bcd60e51b8152600401610aea90613170565b670de0b6b3a76400008310156110fa5760405162461bcd60e51b8152602060048201526024808201527f4d756c74206d757374206265203e3d204d554c5449504c4945525f505245434960448201526329a4a7a760e11b6064820152608401610aea565b6000811161114a5760405162461bcd60e51b815260206004820152601960248201527f7665433320706374206d6178206d757374206265203e3d2030000000000000006044820152606401610aea565b600b839055600f829055600e8190556040518281527f6b04d7611e06fe226eebfd39936d0c17ed4750a86ec9bd223924335d955288689060200160405180910390a17fa1676084a9eea08c6f205b60799323b364a1bd8e10aba89f0fbd94cfbf68b5dd600b546040516111bf91815260200190565b60405180910390a17f5341dc8814a88b3b792bc9de97825af6a74034e43f5263d2ebc8407936723fe6600e546040516111fa91815260200190565b60405180910390a1505050565b6001546001600160a01b0316331461127f5760405162461bcd60e51b815260206004820152603560248201527f596f75206d757374206265206e6f6d696e61746564206265666f726520796f7560448201527402063616e20616363657074206f776e65727368697605c1b6064820152608401610aea565b600054600154604080516001600160a01b0393841681529290911660208301527fb532073b38c83145e3e5135377a08bf9aab55bc0fd7c1179cd4fb995d2a5159c910160405180910390a160018054600080546001600160a01b03199081166001600160a01b03841617909155169055565b6000546001600160a01b031633148061131457506007546001600160a01b031633145b6113305760405162461bcd60e51b8152600401610aea90613170565b6022805464ff000000001981166401000000009182900460ff1615909102179055565b6000546001600160a01b031633148061137657506007546001600160a01b031633145b6113925760405162461bcd60e51b8152600401610aea90613170565b602254610100900460ff166113cf576006546001600160a01b03838116911614156113cf5760405162461bcd60e51b8152600401610aea9061319f565b60005460405163a9059cbb60e01b81526001600160a01b039182166004820152602481018390529083169063a9059cbb906044016020604051808303816000875af1158015611422573d6000803e3d6000fd5b505050506040513d601f19601f8201168201806040525081019061144691906131c9565b50604080516001600160a01b0384168152602081018390527f8c1256b8896378cd5044f80c202f9772b9d77dc85c8a6eb51967210b09bfaa2891015b60405180910390a15050565b6001600160a01b0381166000908152601d602052604081205490806114b284610b48565b6001600160a01b0385166000908152601c6020526040812054919350901580156114f257506001600160a01b0385166000908152601d6020526040902054155b156114fe57508161152c565b6001600160a01b038516600090815260106020526040902054611529906002906109a6908690611e9d565b90505b6000915060005b6001600160a01b0386166000908152601e6020526040902054811015611635576001600160a01b0386166000908152601e6020526040812080548390811061157d5761157d6131e6565b90600052602060002090600502016040518060a0016040529081600082015481526020016001820154815260200160028201548152602001600382015481526020016004820154815250509050600081608001519050428260600151116115e95750670de0b6b3a76400005b60408201516000611610670de0b6b3a76400006109a6611609868a611e9d565b8590611f45565b905061161c8782611e9d565b965050505050808061162d90613212565b915050611533565b50509193909250565b6000546001600160a01b031633148061166157506007546001600160a01b031633145b61167d5760405162461bcd60e51b8152600401610aea90613170565b600880546001600160a01b0319166001600160a01b0392909216919091179055565b6000546001600160a01b03163314806116c257506007546001600160a01b031633145b6116de5760405162461bcd60e51b8152600401610aea90613170565b6001600160a01b03166000908152602160205260409020805460ff19811660ff90911615179055565b6000546001600160a01b031633148061172a57506007546001600160a01b031633145b6117465760405162461bcd60e51b8152600401610aea90613170565b6001600160a01b03166000908152601f60205260409020805460ff19166001179055565b6000546001600160a01b031633148061178d57506007546001600160a01b031633145b6117a95760405162461bcd60e51b8152600401610aea90613170565b6022805461ff001981166101009182900460ff1615909102179055565b6000546001600160a01b03163314806117e957506007546001600160a01b031633145b6118055760405162461bcd60e51b8152600401610aea90613170565b60018210156118565760405162461bcd60e51b815260206004820152601960248201527f4d756c206d61782074696d65206d757374206265203e3d2031000000000000006044820152606401610aea565b60018110156118a75760405162461bcd60e51b815260206004820152601960248201527f4d756c206d696e2074696d65206d757374206265203e3d2031000000000000006044820152606401610aea565b600c829055600d8190556040518281527f0e3e3fae480c6f92291358a02bc83f04ee1971d5488596bffda7929d57ab470f9060200160405180910390a16040518181527f0534d208d75dfdbfacc1204745dd9b3c4c37e8cfc05eb5e8e3ae538aedb0a9fa90602001611482565b6000546001600160a01b031633148061193757506007546001600160a01b031633145b6119535760405162461bcd60e51b8152600401610aea90613170565b600780546001600160a01b0319166001600160a01b0392909216919091179055565b6000546001600160a01b031633148061199857506007546001600160a01b031633145b806119ad57506008546001600160a01b031633145b6119f25760405162461bcd60e51b81526020600482015260166024820152752737ba1037bbb716103a3635961037b91031ba39363960511b6044820152606401610aea565b6009541580611a02575060095442115b611a4e5760405162461bcd60e51b815260206004820152601860248201527f52657761726420706572696f6420696e636f6d706c65746500000000000000006044820152606401610aea565b60138190556040518181527ffb46ca5a5e06d4540d6387b930a7c978bce0db5f449ec6b3f5d07c6e1d44f2d390602001610b3d565b600080601a5460001480611a975750601b54155b15611aa85750506014546015549091565b611ae0611ad7601b546109a6670de0b6b3a7640000610be0601154610be0600a54611ad161294e565b90611f03565b60145490611e9d565b610d55611b09601b546109a6670de0b6b3a7640000610be0601254610be0600a54611ad161294e565b60155490611e9d565b6000546001600160a01b0316331480611b3557506007546001600160a01b031633145b611b515760405162461bcd60e51b8152600401610aea90613170565b6022805463ff00000019811663010000009182900460ff1615909102179055565b6000546001600160a01b0316331480611b9557506007546001600160a01b031633145b80611baa57506008546001600160a01b031633145b611bef5760405162461bcd60e51b81526020600482015260166024820152752737ba1037bbb716103a3635961037b91031ba39363960511b6044820152606401610aea565b601183905560128290558015611c0757611c07611e60565b505050565b6000546001600160a01b0316331480611c2f57506007546001600160a01b031633145b611c4b5760405162461bcd60e51b8152600401610aea90613170565b6022805462ff0000198116620100009182900460ff1615909102179055565b60225460ff610100909104161515600114611c975760405162461bcd60e51b8152600401610aea9061319f565b6001600160a01b03821660009081526020808052604080832033845290915290205460ff168015611cd75750336000908152601f602052604090205460ff165b611d235760405162461bcd60e51b815260206004820152601a60248201527f4d69672e20696e76616c6964206f7220756e617070726f7665640000000000006044820152606401610aea565b611d2e8233836125cd565b5050565b6000546001600160a01b0316331480611d5557506007546001600160a01b031633145b611d715760405162461bcd60e51b8152600401610aea90613170565b60225460ff1615611d825760006012555b6022805460ff19811660ff90911615179055565b6001600160a01b0381166000908152601f602052604090205460ff16611dfe5760405162461bcd60e51b815260206004820152601860248201527f496e76616c6964206d69677261746f72206164647265737300000000000000006044820152606401610aea565b336000908152602080805260408083206001600160a01b0394909416835292905220805460ff19166001179055565b6000610a76670de0b6b3a76400006109a6600e54610be0866001600160a01b03166000908152601c602052604090205490565b600954421115611e7457611e72612961565b565b600080611e7f611a83565b601482905560158190559092509050611e9661294e565b600a555050565b600080611eaa838561322d565b905083811015611efc5760405162461bcd60e51b815260206004820152601b60248201527f536166654d6174683a206164646974696f6e206f766572666c6f7700000000006044820152606401610aea565b9392505050565b6000611efc83836040518060400160405280601e81526020017f536166654d6174683a207375627472616374696f6e206f766572666c6f770000815250612c3f565b600082611f5457506000610a76565b6000611f608385613245565b905082611f6d8583613264565b14611efc5760405162461bcd60e51b815260206004820152602160248201527f536166654d6174683a206d756c7469706c69636174696f6e206f766572666c6f6044820152607760f81b6064820152608401610aea565b6000611efc83836040518060400160405280601a81526020017f536166654d6174683a206469766973696f6e206279207a65726f000000000000815250612c79565b8460016120138282612ca7565b60225465010000000000900460ff1615806120425750336000908152601f602052604090205460ff1615156001145b61208e5760405162461bcd60e51b815260206004820152601e60248201527f5374616b696e6720706175736564206f7220696e206d6967726174696f6e00006044820152606401610aea565b600085116120de5760405162461bcd60e51b815260206004820152601960248201527f4d757374207374616b65206d6f7265207468616e207a65726f000000000000006044820152606401610aea565b6001600160a01b03871660009081526021602052604090205460ff16156121475760405162461bcd60e51b815260206004820152601b60248201527f4164647265737320686173206265656e20677265796c697374656400000000006044820152606401610aea565b600d548410156121995760405162461bcd60e51b815260206004820152601a60248201527f4d696e696d756d207374616b652074696d65206e6f74206d65740000000000006044820152606401610aea565b600c548411156121eb5760405162461bcd60e51b815260206004820152601b60248201527f547279696e6720746f206c6f636b20666f7220746f6f206c6f6e6700000000006044820152606401610aea565b60006121f685610a23565b6001600160a01b0389166000908152601c602090815260408083205490516bffffffffffffffffffffffff1960608e901b169281019290925260348201889052605482018a905260748201529192509060940160408051601f1981840301815282825280516020918201206001600160a01b038d166000908152601e835283902060a0850184528185529184018990529183018a9052909250906060810161229e888a611e9d565b8152602090810185905282546001818101855560009485529382902083516005909202019081559082015192810192909255604081015160028301556060810151600383015560800151600490910155600654612306906001600160a01b031689308a612d96565b601a546123139088611e9d565b601a556001600160a01b0389166000908152601c60205260409020546123399088611e9d565b6001600160a01b038a166000908152601c6020526040812091909155612360908a90612ca7565b60408051888152602081018890529081018290526001600160a01b0389811660608301528a16907ff400e72e69ef4402819dfc57eeddc66f5eb69bf405e0e8098b1946ec1ac14a229060800160405180910390a2505050505050505050565b6000808360016123cf8282612ca7565b6001600160a01b038616600090815260186020908152604080832054601990925290912054909450925083156124e0576001600160a01b038681166000908152601860205260408082209190915560048054915163a9059cbb60e01b8152888416918101919091526024810187905291169063a9059cbb906044016020604051808303816000875af1158015612469573d6000803e3d6000fd5b505050506040513d601f19601f8201168201806040525081019061248d91906131c9565b50600454604080518681526001600160a01b039283166020820152878316818301529051918816917f1d2f2ca53af5d2f333bd32fdd45f9c52ad8ebe31414f7792912077fcb3876dff9181900360600190a25b82156125c4576001600160a01b0386811660009081526019602052604080822091909155600554905163a9059cbb60e01b815287831660048201526024810186905291169063a9059cbb906044016020604051808303816000875af115801561254d573d6000803e3d6000fd5b505050506040513d601f19601f8201168201806040525081019061257191906131c9565b50600554604080518581526001600160a01b039283166020820152878316818301529051918816917f1d2f2ca53af5d2f333bd32fdd45f9c52ad8ebe31414f7792912077fcb3876dff9181900360600190a25b50509250929050565b6125d783836123bf565b505061260e6040518060a0016040528060008019168152602001600081526020016000815260200160008152602001600081525090565b600060408201819052805b6001600160a01b0386166000908152601e602052604090205481101561270d576001600160a01b0386166000908152601e60205260409020805482908110612663576126636131e6565b9060005260206000209060050201600001548414156126fb576001600160a01b0386166000908152601e602052604090208054829081106126a6576126a66131e6565b90600052602060002090600502016040518060a001604052908160008201548152602001600182015481526020016002820154815260200160038201548152602001600482015481525050925080915061270d565b8061270581613212565b915050612619565b50815183146127505760405162461bcd60e51b815260206004820152600f60248201526e14dd185ad9481b9bdd08199bdd5b99608a1b6044820152606401610aea565b816060015142101580612770575060225462010000900460ff1615156001145b8061278f5750336000908152601f602052604090205460ff1615156001145b6127d45760405162461bcd60e51b81526020600482015260166024820152755374616b65206973207374696c6c206c6f636b65642160501b6044820152606401610aea565b6040820151801561294657601a546127ec9082611f03565b601a556001600160a01b0386166000908152601c60205260409020546128129082611f03565b6001600160a01b0387166000908152601c6020908152604080832093909355601e905220805483908110612848576128486131e6565b600091825260208220600590910201818155600181018290556002810182905560038101829055600401819055612880908790612ca7565b60065460405163a9059cbb60e01b81526001600160a01b038781166004830152602482018490529091169063a9059cbb906044016020604051808303816000875af11580156128d3573d6000803e3d6000fd5b505050506040513d601f19601f820116820180604052508101906128f791906131c9565b5060408051828152602081018690526001600160a01b03878116828401529151918816917f1d9308f6b22a2754a1c622bb30889e8f8f956c83e524d039e9d65d5f052eb9089181900360600190a25b505050505050565b600061295c42600954612ebe565b905090565b60095442116129b25760405162461bcd60e51b815260206004820152601b60248201527f506572696f6420686173206e6f742065787069726564207965742100000000006044820152606401610aea565b60006013546129cc60095442611f0390919063ffffffff16565b6129d69190613264565b600480546040516370a0823160e01b815230928101929092529192506000916001600160a01b0316906370a0823190602401602060405180830381865afa158015612a25573d6000803e3d6000fd5b505050506040513d601f19601f82011682018060405250810190612a499190613120565b6005546040516370a0823160e01b81523060048201529192506000916001600160a01b03909116906370a0823190602401602060405180830381865afa158015612a97573d6000803e3d6000fd5b505050506040513d601f19601f82011682018060405250810190612abb9190613120565b905081612adb612acc85600161322d565b601354601154610be091611f45565b1115612b295760405162461bcd60e51b815260206004820152601760248201527f4e6f7420656e6f75676820433320617661696c61626c650000000000000000006044820152606401610aea565b60225460ff1615612bb15780612b52612b4385600161322d565b601354601254610be091611f45565b1115612bb15760405162461bcd60e51b815260206004820152602860248201527f4e6f7420656e6f75676820746f6b656e3120617661696c61626c6520666f7220604482015267726577617264732160c01b6064820152608401610aea565b601354612bd090612bc790610be0866001611e9d565b60095490611e9d565b600955600080612bde611a83565b601482905560158190559092509050612bf561294e565b600a556006546040516001600160a01b0390911681527f6f2b3b3aaf1881d69a5d40565500f93ea73df36e7b6a29bf48b21479a9237fe99060200160405180910390a15050505050565b60008184841115612c635760405162461bcd60e51b8152600401610aea91906132b2565b506000612c7084866132e5565b95945050505050565b60008183612c9a5760405162461bcd60e51b8152600401610aea91906132b2565b506000612c708486613264565b8015612cb557612cb5611e60565b6001600160a01b03821615611d2e576000806000612cd28561148e565b925092509250612ce185612ed4565b6001600160a01b0385166000908152601060205260409020829055828110612d4b576000612d0f8285611f03565b601b54909150612d1f9082611e9d565b601b55612d2c8482611e9d565b6001600160a01b0387166000908152601d602052604090205550612d8f565b6000612d578483611f03565b601b54909150612d679082611f03565b601b55612d748482611f03565b6001600160a01b0387166000908152601d6020526040902055505b5050505050565b604080516001600160a01b0385811660248301528481166044830152606480830185905283518084039091018152608490920183526020820180516001600160e01b03166323b872dd60e01b1790529151600092839290881691612dfa91906132fc565b6000604051808303816000865af19150503d8060008114612e37576040519150601f19603f3d011682016040523d82523d6000602084013e612e3c565b606091505b5091509150818015612e66575080511580612e66575080806020019051810190612e6691906131c9565b6129465760405162461bcd60e51b8152602060048201526024808201527f5472616e7366657248656c7065723a205452414e534645525f46524f4d5f46416044820152631253115160e21b6064820152608401610aea565b6000818310612ecd5781611efc565b5090919050565b6001600160a01b03811615612f3457600080612eef83610903565b6001600160a01b038516600090815260186020908152604080832094909455601981528382209290925560145460168352838220556015546017909252919091205550505b50565b80356001600160a01b0381168114612f4e57600080fd5b919050565b600060208284031215612f6557600080fd5b611efc82612f37565b600060208284031215612f8057600080fd5b5035919050565b60008060408385031215612f9a57600080fd5b50508035926020909101359150565b602080825282518282018190526000919060409081850190868401855b8281101561300a5781518051855286810151878601528581015186860152606080820151908601526080908101519085015260a09093019290850190600101612fc6565b5091979650505050505050565b6000806000806080858703121561302d57600080fd5b61303685612f37565b966020860135965060408601359560600135945092505050565b60008060006060848603121561306557600080fd5b505081359360208301359350604090920135919050565b6000806040838503121561308f57600080fd5b61309883612f37565b946020939093013593505050565b600080604083850312156130b957600080fd5b6130c283612f37565b91506130d060208401612f37565b90509250929050565b8015158114612f3457600080fd5b6000806000606084860312156130fc57600080fd5b83359250602084013591506040840135613115816130d9565b809150509250925092565b60006020828403121561313257600080fd5b5051919050565b6020808252601f908201527f5265656e7472616e637947756172643a207265656e7472616e742063616c6c00604082015260600190565b6020808252601590820152744e6f74206f776e6572206f722074696d656c6f636b60581b604082015260600190565b60208082526010908201526f2737ba1034b71036b4b3b930ba34b7b760811b604082015260600190565b6000602082840312156131db57600080fd5b8151611efc816130d9565b634e487b7160e01b600052603260045260246000fd5b634e487b7160e01b600052601160045260246000fd5b6000600019821415613226576132266131fc565b5060010190565b60008219821115613240576132406131fc565b500190565b600081600019048311821515161561325f5761325f6131fc565b500290565b60008261328157634e487b7160e01b600052601260045260246000fd5b500490565b60005b838110156132a1578181015183820152602001613289565b83811115610eca5750506000910152565b60208152600082518060208401526132d1816040850160208701613286565b601f01601f19169190910160400192915050565b6000828210156132f7576132f76131fc565b500390565b6000825161330e818460208701613286565b919091019291505056fea2646970667358221220a434005bb57ac2f0376f2950c15661953e443e4d2062a783e823ad2d4539afca64736f6c634300080b0033",
			"opcodes": "PUSH1 0x80 PUSH1 0x40 MSTORE PUSH8 0x29A2241AF62C0000 PUSH1 0xB SSTORE PUSH4 0x5A39A80 PUSH1 0xC SSTORE PUSH3 0x15180 PUSH1 0xD SSTORE PUSH8 0x3782DACE9D900000 PUSH1 0xE SSTORE PUSH8 0x1BC16D674EC80000 PUSH1 0xF SSTORE PUSH3 0x93A80 PUSH1 0x13 SSTORE PUSH1 0x0 PUSH1 0x15 SSTORE PUSH1 0x22 DUP1 SLOAD PUSH1 0xFF NOT AND PUSH1 0x1 OR SWAP1 SSTORE CALLVALUE DUP1 ISZERO PUSH3 0x5D JUMPI PUSH1 0x0 DUP1 REVERT JUMPDEST POP PUSH1 0x40 MLOAD PUSH3 0x3679 CODESIZE SUB DUP1 PUSH3 0x3679 DUP4 CODECOPY DUP2 ADD PUSH1 0x40 DUP2 SWAP1 MSTORE PUSH3 0x80 SWAP2 PUSH3 0x25F JUMP JUMPDEST DUP7 PUSH1 0x1 PUSH1 0x1 PUSH1 0xA0 SHL SUB DUP2 AND PUSH3 0xDD JUMPI PUSH1 0x40 MLOAD PUSH3 0x461BCD PUSH1 0xE5 SHL DUP2 MSTORE PUSH1 0x20 PUSH1 0x4 DUP3 ADD MSTORE PUSH1 0x19 PUSH1 0x24 DUP3 ADD MSTORE PUSH32 0x4F776E657220616464726573732063616E6E6F74206265203000000000000000 PUSH1 0x44 DUP3 ADD MSTORE PUSH1 0x64 ADD JUMPDEST PUSH1 0x40 MLOAD DUP1 SWAP2 SUB SWAP1 REVERT JUMPDEST PUSH1 0x0 DUP1 SLOAD PUSH1 0x1 PUSH1 0x1 PUSH1 0xA0 SHL SUB NOT AND PUSH1 0x1 PUSH1 0x1 PUSH1 0xA0 SHL SUB DUP4 AND SWAP1 DUP2 OR DUP3 SSTORE PUSH1 0x40 DUP1 MLOAD SWAP3 DUP4 MSTORE PUSH1 0x20 DUP4 ADD SWAP2 SWAP1 SWAP2 MSTORE PUSH32 0xB532073B38C83145E3E5135377A08BF9AAB55BC0FD7C1179CD4FB995D2A5159C SWAP2 ADD PUSH1 0x40 MLOAD DUP1 SWAP2 SUB SWAP1 LOG1 POP PUSH1 0x1 PUSH1 0x2 SSTORE PUSH1 0x4 DUP1 SLOAD PUSH1 0x1 PUSH1 0x1 PUSH1 0xA0 SHL SUB NOT SWAP1 DUP2 AND PUSH1 0x1 PUSH1 0x1 PUSH1 0xA0 SHL SUB DUP10 DUP2 AND SWAP2 SWAP1 SWAP2 OR SWAP1 SWAP3 SSTORE PUSH1 0x5 DUP1 SLOAD DUP3 AND DUP9 DUP5 AND OR SWAP1 SSTORE PUSH1 0x6 DUP1 SLOAD DUP3 AND DUP8 DUP5 AND OR SWAP1 SSTORE PUSH1 0x3 DUP1 SLOAD DUP3 AND DUP5 DUP5 AND OR SWAP1 SSTORE PUSH1 0x7 DUP1 SLOAD SWAP1 SWAP2 AND SWAP2 DUP5 AND SWAP2 SWAP1 SWAP2 OR SWAP1 SSTORE PUSH1 0x0 PUSH1 0x11 DUP2 SWAP1 SSTORE PUSH1 0x12 SSTORE PUSH1 0x22 DUP1 SLOAD PUSH3 0xFFFF00 NOT AND SWAP1 SSTORE TIMESTAMP PUSH1 0xA DUP2 SWAP1 SSTORE PUSH1 0x13 SLOAD PUSH3 0x1C7 SWAP2 SWAP1 PUSH3 0x1D8 PUSH1 0x20 SWAP1 DUP2 SHL PUSH3 0x1E9D OR SWAP1 SHR JUMP JUMPDEST PUSH1 0x9 SSTORE POP PUSH3 0x31B SWAP6 POP POP POP POP POP POP JUMP JUMPDEST PUSH1 0x0 DUP1 PUSH3 0x1E7 DUP4 DUP6 PUSH3 0x2F4 JUMP JUMPDEST SWAP1 POP DUP4 DUP2 LT ISZERO PUSH3 0x23B JUMPI PUSH1 0x40 MLOAD PUSH3 0x461BCD PUSH1 0xE5 SHL DUP2 MSTORE PUSH1 0x20 PUSH1 0x4 DUP3 ADD MSTORE PUSH1 0x1B PUSH1 0x24 DUP3 ADD MSTORE PUSH32 0x536166654D6174683A206164646974696F6E206F766572666C6F770000000000 PUSH1 0x44 DUP3 ADD MSTORE PUSH1 0x64 ADD PUSH3 0xD4 JUMP JUMPDEST SWAP4 SWAP3 POP POP POP JUMP JUMPDEST DUP1 MLOAD PUSH1 0x1 PUSH1 0x1 PUSH1 0xA0 SHL SUB DUP2 AND DUP2 EQ PUSH3 0x25A JUMPI PUSH1 0x0 DUP1 REVERT JUMPDEST SWAP2 SWAP1 POP JUMP JUMPDEST PUSH1 0x0 DUP1 PUSH1 0x0 DUP1 PUSH1 0x0 DUP1 PUSH1 0x0 PUSH1 0xE0 DUP9 DUP11 SUB SLT ISZERO PUSH3 0x27B JUMPI PUSH1 0x0 DUP1 REVERT JUMPDEST PUSH3 0x286 DUP9 PUSH3 0x242 JUMP JUMPDEST SWAP7 POP PUSH3 0x296 PUSH1 0x20 DUP10 ADD PUSH3 0x242 JUMP JUMPDEST SWAP6 POP PUSH3 0x2A6 PUSH1 0x40 DUP10 ADD PUSH3 0x242 JUMP JUMPDEST SWAP5 POP PUSH3 0x2B6 PUSH1 0x60 DUP10 ADD PUSH3 0x242 JUMP JUMPDEST SWAP4 POP PUSH3 0x2C6 PUSH1 0x80 DUP10 ADD PUSH3 0x242 JUMP JUMPDEST SWAP3 POP PUSH3 0x2D6 PUSH1 0xA0 DUP10 ADD PUSH3 0x242 JUMP JUMPDEST SWAP2 POP PUSH3 0x2E6 PUSH1 0xC0 DUP10 ADD PUSH3 0x242 JUMP JUMPDEST SWAP1 POP SWAP3 SWAP6 SWAP9 SWAP2 SWAP5 SWAP8 POP SWAP3 SWAP6 POP JUMP JUMPDEST PUSH1 0x0 DUP3 NOT DUP3 GT ISZERO PUSH3 0x316 JUMPI PUSH4 0x4E487B71 PUSH1 0xE0 SHL PUSH1 0x0 MSTORE PUSH1 0x11 PUSH1 0x4 MSTORE PUSH1 0x24 PUSH1 0x0 REVERT JUMPDEST POP ADD SWAP1 JUMP JUMPDEST PUSH2 0x334E DUP1 PUSH3 0x32B PUSH1 0x0 CODECOPY PUSH1 0x0 RETURN INVALID PUSH1 0x80 PUSH1 0x40 MSTORE CALLVALUE DUP1 ISZERO PUSH2 0x10 JUMPI PUSH1 0x0 DUP1 REVERT JUMPDEST POP PUSH1 0x4 CALLDATASIZE LT PUSH2 0x3E5 JUMPI PUSH1 0x0 CALLDATALOAD PUSH1 0xE0 SHR DUP1 PUSH4 0x92EEFE9B GT PUSH2 0x20A JUMPI DUP1 PUSH4 0xD239F003 GT PUSH2 0x125 JUMPI DUP1 PUSH4 0xEBE2B12B GT PUSH2 0xB8 JUMPI DUP1 PUSH4 0xF9706F44 GT PUSH2 0x87 JUMPI DUP1 PUSH4 0xF9706F44 EQ PUSH2 0x8AD JUMPI DUP1 PUSH4 0xFCE6FD13 EQ PUSH2 0x8C0 JUMPI DUP1 PUSH4 0xFE271F5F EQ PUSH2 0x8D2 JUMPI DUP1 PUSH4 0xFF0063FC EQ PUSH2 0x8F2 JUMPI DUP1 PUSH4 0xFFF6CAE9 EQ PUSH2 0x8FB JUMPI PUSH1 0x0 DUP1 REVERT JUMPDEST DUP1 PUSH4 0xEBE2B12B EQ PUSH2 0x866 JUMPI DUP1 PUSH4 0xED48F6F7 EQ PUSH2 0x86F JUMPI DUP1 PUSH4 0xEE89E02F EQ PUSH2 0x877 JUMPI DUP1 PUSH4 0xF12F1447 EQ PUSH2 0x89A JUMPI PUSH1 0x0 DUP1 REVERT JUMPDEST DUP1 PUSH4 0xE01F62BF GT PUSH2 0xF4 JUMPI DUP1 PUSH4 0xE01F62BF EQ PUSH2 0x82F JUMPI DUP1 PUSH4 0xE1BA95D2 EQ PUSH2 0x837 JUMPI DUP1 PUSH4 0xE9F2838E EQ PUSH2 0x83F JUMPI DUP1 PUSH4 0xEB3C209E EQ PUSH2 0x853 JUMPI PUSH1 0x0 DUP1 REVERT JUMPDEST DUP1 PUSH4 0xD239F003 EQ PUSH2 0x801 JUMPI DUP1 PUSH4 0xD9F96E8D EQ PUSH2 0x574 JUMPI DUP1 PUSH4 0xDC6663C7 EQ PUSH2 0x809 JUMPI DUP1 PUSH4 0xDE9853AD EQ PUSH2 0x81C JUMPI PUSH1 0x0 DUP1 REVERT JUMPDEST DUP1 PUSH4 0xB94C4DCB GT PUSH2 0x19D JUMPI DUP1 PUSH4 0xC8F33C91 GT PUSH2 0x16C JUMPI DUP1 PUSH4 0xC8F33C91 EQ PUSH2 0x7D4 JUMPI DUP1 PUSH4 0xCC1A378F EQ PUSH2 0x7DD JUMPI DUP1 PUSH4 0xCD3DAF9D EQ PUSH2 0x7F0 JUMPI DUP1 PUSH4 0xCDC82E80 EQ PUSH2 0x7F8 JUMPI PUSH1 0x0 DUP1 REVERT JUMPDEST DUP1 PUSH4 0xB94C4DCB EQ PUSH2 0x782 JUMPI DUP1 PUSH4 0xBBB781CC EQ PUSH2 0x78B JUMPI DUP1 PUSH4 0xBDACB303 EQ PUSH2 0x7A1 JUMPI DUP1 PUSH4 0xC126D1AA EQ PUSH2 0x7B4 JUMPI PUSH1 0x0 DUP1 REVERT JUMPDEST DUP1 PUSH4 0x9C5303EB GT PUSH2 0x1D9 JUMPI DUP1 PUSH4 0x9C5303EB EQ PUSH2 0x74B JUMPI DUP1 PUSH4 0xA1EC508A EQ PUSH2 0x75E JUMPI DUP1 PUSH4 0xA2217BC5 EQ PUSH2 0x767 JUMPI DUP1 PUSH4 0xAF00F4E2 EQ PUSH2 0x76F JUMPI PUSH1 0x0 DUP1 REVERT JUMPDEST DUP1 PUSH4 0x92EEFE9B EQ PUSH2 0x6E6 JUMPI DUP1 PUSH4 0x941D9F65 EQ PUSH2 0x6F9 JUMPI DUP1 PUSH4 0x9637927F EQ PUSH2 0x70C JUMPI DUP1 PUSH4 0x9B8C15A8 EQ PUSH2 0x71F JUMPI PUSH1 0x0 DUP1 REVERT JUMPDEST DUP1 PUSH4 0x3D18B912 GT PUSH2 0x305 JUMPI DUP1 PUSH4 0x67FEDA3E GT PUSH2 0x298 JUMPI DUP1 PUSH4 0x79BA5097 GT PUSH2 0x267 JUMPI DUP1 PUSH4 0x79BA5097 EQ PUSH2 0x682 JUMPI DUP1 PUSH4 0x7B31C19A EQ PUSH2 0x68A JUMPI DUP1 PUSH4 0x8980F11F EQ PUSH2 0x692 JUMPI DUP1 PUSH4 0x8BAD86A7 EQ PUSH2 0x6A5 JUMPI DUP1 PUSH4 0x8DA5CB5B EQ PUSH2 0x6D3 JUMPI PUSH1 0x0 DUP1 REVERT JUMPDEST DUP1 PUSH4 0x67FEDA3E EQ PUSH2 0x633 JUMPI DUP1 PUSH4 0x6A231B03 EQ PUSH2 0x646 JUMPI DUP1 PUSH4 0x6CE46BC3 EQ PUSH2 0x666 JUMPI DUP1 PUSH4 0x6E27CEF9 EQ PUSH2 0x679 JUMPI PUSH1 0x0 DUP1 REVERT JUMPDEST DUP1 PUSH4 0x52732BC8 GT PUSH2 0x2D4 JUMPI DUP1 PUSH4 0x52732BC8 EQ PUSH2 0x5B9 JUMPI DUP1 PUSH4 0x53A47BB7 EQ PUSH2 0x5F3 JUMPI DUP1 PUSH4 0x64350467 EQ PUSH2 0x61E JUMPI DUP1 PUSH4 0x64F2C060 EQ PUSH2 0x62B JUMPI PUSH1 0x0 DUP1 REVERT JUMPDEST DUP1 PUSH4 0x3D18B912 EQ PUSH2 0x56C JUMPI DUP1 PUSH4 0x4703DACE EQ PUSH2 0x574 JUMPI DUP1 PUSH4 0x51654F7F EQ PUSH2 0x59D JUMPI DUP1 PUSH4 0x51E3FC17 EQ PUSH2 0x5A6 JUMPI PUSH1 0x0 DUP1 REVERT JUMPDEST DUP1 PUSH4 0x1E090F01 GT PUSH2 0x37D JUMPI DUP1 PUSH4 0x323331CA GT PUSH2 0x34C JUMPI DUP1 PUSH4 0x323331CA EQ PUSH2 0x51D JUMPI DUP1 PUSH4 0x36F89AF2 EQ PUSH2 0x532 JUMPI DUP1 PUSH4 0x386A9525 EQ PUSH2 0x55B JUMPI DUP1 PUSH4 0x3B8105B3 EQ PUSH2 0x564 JUMPI PUSH1 0x0 DUP1 REVERT JUMPDEST DUP1 PUSH4 0x1E090F01 EQ PUSH2 0x4AE JUMPI DUP1 PUSH4 0x28EF934E EQ PUSH2 0x4CE JUMPI DUP1 PUSH4 0x2CA1A895 EQ PUSH2 0x4E1 JUMPI DUP1 PUSH4 0x31CA208C EQ PUSH2 0x4EA JUMPI PUSH1 0x0 DUP1 REVERT JUMPDEST DUP1 PUSH4 0x170FEB76 GT PUSH2 0x3B9 JUMPI DUP1 PUSH4 0x170FEB76 EQ PUSH2 0x46D JUMPI DUP1 PUSH4 0x17B18C89 EQ PUSH2 0x480 JUMPI DUP1 PUSH4 0x1B3E870A EQ PUSH2 0x493 JUMPI DUP1 PUSH4 0x1C1F78EB EQ PUSH2 0x4A6 JUMPI PUSH1 0x0 DUP1 REVERT JUMPDEST DUP1 PUSH3 0x8CC262 EQ PUSH2 0x3EA JUMPI DUP1 PUSH4 0xD7BAC4F EQ PUSH2 0x417 JUMPI DUP1 PUSH4 0x144E8034 EQ PUSH2 0x438 JUMPI DUP1 PUSH4 0x1627540C EQ PUSH2 0x458 JUMPI JUMPDEST PUSH1 0x0 DUP1 REVERT JUMPDEST PUSH2 0x3FD PUSH2 0x3F8 CALLDATASIZE PUSH1 0x4 PUSH2 0x2F53 JUMP JUMPDEST PUSH2 0x903 JUMP JUMPDEST PUSH1 0x40 DUP1 MLOAD SWAP3 DUP4 MSTORE PUSH1 0x20 DUP4 ADD SWAP2 SWAP1 SWAP2 MSTORE ADD JUMPDEST PUSH1 0x40 MLOAD DUP1 SWAP2 SUB SWAP1 RETURN JUMPDEST PUSH2 0x42A PUSH2 0x425 CALLDATASIZE PUSH1 0x4 PUSH2 0x2F6E JUMP JUMPDEST PUSH2 0xA23 JUMP JUMPDEST PUSH1 0x40 MLOAD SWAP1 DUP2 MSTORE PUSH1 0x20 ADD PUSH2 0x40E JUMP JUMPDEST PUSH2 0x42A PUSH2 0x446 CALLDATASIZE PUSH1 0x4 PUSH2 0x2F53 JUMP JUMPDEST PUSH1 0x16 PUSH1 0x20 MSTORE PUSH1 0x0 SWAP1 DUP2 MSTORE PUSH1 0x40 SWAP1 KECCAK256 SLOAD DUP2 JUMP JUMPDEST PUSH2 0x46B PUSH2 0x466 CALLDATASIZE PUSH1 0x4 PUSH2 0x2F53 JUMP JUMPDEST PUSH2 0xA7C JUMP JUMPDEST STOP JUMPDEST PUSH2 0x42A PUSH2 0x47B CALLDATASIZE PUSH1 0x4 PUSH2 0x2F53 JUMP JUMPDEST PUSH2 0xB48 JUMP JUMPDEST PUSH2 0x46B PUSH2 0x48E CALLDATASIZE PUSH1 0x4 PUSH2 0x2F87 JUMP JUMPDEST PUSH2 0xC2D JUMP JUMPDEST PUSH2 0x46B PUSH2 0x4A1 CALLDATASIZE PUSH1 0x4 PUSH2 0x2F53 JUMP JUMPDEST PUSH2 0xC69 JUMP JUMPDEST PUSH2 0x3FD PUSH2 0xD2C JUMP JUMPDEST PUSH2 0x4C1 PUSH2 0x4BC CALLDATASIZE PUSH1 0x4 PUSH2 0x2F53 JUMP JUMPDEST PUSH2 0xD5D JUMP JUMPDEST PUSH1 0x40 MLOAD PUSH2 0x40E SWAP2 SWAP1 PUSH2 0x2FA9 JUMP JUMPDEST PUSH2 0x46B PUSH2 0x4DC CALLDATASIZE PUSH1 0x4 PUSH2 0x3017 JUMP JUMPDEST PUSH2 0xE04 JUMP JUMPDEST PUSH2 0x42A PUSH1 0x11 SLOAD DUP2 JUMP JUMPDEST PUSH2 0x50D PUSH2 0x4F8 CALLDATASIZE PUSH1 0x4 PUSH2 0x2F53 JUMP JUMPDEST PUSH1 0x21 PUSH1 0x20 MSTORE PUSH1 0x0 SWAP1 DUP2 MSTORE PUSH1 0x40 SWAP1 KECCAK256 SLOAD PUSH1 0xFF AND DUP2 JUMP JUMPDEST PUSH1 0x40 MLOAD SWAP1 ISZERO ISZERO DUP2 MSTORE PUSH1 0x20 ADD PUSH2 0x40E JUMP JUMPDEST PUSH1 0x22 SLOAD PUSH2 0x50D SWAP1 PUSH5 0x100000000 SWAP1 DIV PUSH1 0xFF AND DUP2 JUMP JUMPDEST PUSH2 0x42A PUSH2 0x540 CALLDATASIZE PUSH1 0x4 PUSH2 0x2F53 JUMP JUMPDEST PUSH1 0x1 PUSH1 0x1 PUSH1 0xA0 SHL SUB AND PUSH1 0x0 SWAP1 DUP2 MSTORE PUSH1 0x1D PUSH1 0x20 MSTORE PUSH1 0x40 SWAP1 KECCAK256 SLOAD SWAP1 JUMP JUMPDEST PUSH2 0x42A PUSH1 0x13 SLOAD DUP2 JUMP JUMPDEST PUSH2 0x46B PUSH2 0xED0 JUMP JUMPDEST PUSH2 0x3FD PUSH2 0xF34 JUMP JUMPDEST PUSH2 0x42A PUSH2 0x582 CALLDATASIZE PUSH1 0x4 PUSH2 0x2F53 JUMP JUMPDEST PUSH1 0x1 PUSH1 0x1 PUSH1 0xA0 SHL SUB AND PUSH1 0x0 SWAP1 DUP2 MSTORE PUSH1 0x1C PUSH1 0x20 MSTORE PUSH1 0x40 SWAP1 KECCAK256 SLOAD SWAP1 JUMP JUMPDEST PUSH2 0x42A PUSH1 0xF SLOAD DUP2 JUMP JUMPDEST PUSH2 0x46B PUSH2 0x5B4 CALLDATASIZE PUSH1 0x4 PUSH2 0x2F6E JUMP JUMPDEST PUSH2 0xFCF JUMP JUMPDEST PUSH2 0x46B PUSH2 0x5C7 CALLDATASIZE PUSH1 0x4 PUSH2 0x2F53 JUMP JUMPDEST CALLER PUSH1 0x0 SWAP1 DUP2 MSTORE PUSH1 0x20 DUP1 DUP1 MSTORE PUSH1 0x40 DUP1 DUP4 KECCAK256 PUSH1 0x1 PUSH1 0x1 PUSH1 0xA0 SHL SUB SWAP5 SWAP1 SWAP5 AND DUP4 MSTORE SWAP3 SWAP1 MSTORE KECCAK256 DUP1 SLOAD PUSH1 0xFF NOT AND SWAP1 SSTORE JUMP JUMPDEST PUSH1 0x1 SLOAD PUSH2 0x606 SWAP1 PUSH1 0x1 PUSH1 0x1 PUSH1 0xA0 SHL SUB AND DUP2 JUMP JUMPDEST PUSH1 0x40 MLOAD PUSH1 0x1 PUSH1 0x1 PUSH1 0xA0 SHL SUB SWAP1 SWAP2 AND DUP2 MSTORE PUSH1 0x20 ADD PUSH2 0x40E JUMP JUMPDEST PUSH1 0x22 SLOAD PUSH2 0x50D SWAP1 PUSH1 0xFF AND DUP2 JUMP JUMPDEST PUSH1 0x1B SLOAD PUSH2 0x42A JUMP JUMPDEST PUSH1 0x8 SLOAD PUSH2 0x606 SWAP1 PUSH1 0x1 PUSH1 0x1 PUSH1 0xA0 SHL SUB AND DUP2 JUMP JUMPDEST PUSH2 0x42A PUSH2 0x654 CALLDATASIZE PUSH1 0x4 PUSH2 0x2F53 JUMP JUMPDEST PUSH1 0x19 PUSH1 0x20 MSTORE PUSH1 0x0 SWAP1 DUP2 MSTORE PUSH1 0x40 SWAP1 KECCAK256 SLOAD DUP2 JUMP JUMPDEST PUSH2 0x46B PUSH2 0x674 CALLDATASIZE PUSH1 0x4 PUSH2 0x3050 JUMP JUMPDEST PUSH2 0x1057 JUMP JUMPDEST PUSH2 0x42A PUSH1 0xD SLOAD DUP2 JUMP JUMPDEST PUSH2 0x46B PUSH2 0x1207 JUMP JUMPDEST PUSH2 0x46B PUSH2 0x12F1 JUMP JUMPDEST PUSH2 0x46B PUSH2 0x6A0 CALLDATASIZE PUSH1 0x4 PUSH2 0x307C JUMP JUMPDEST PUSH2 0x1353 JUMP JUMPDEST PUSH2 0x6B8 PUSH2 0x6B3 CALLDATASIZE PUSH1 0x4 PUSH2 0x2F53 JUMP JUMPDEST PUSH2 0x148E JUMP JUMPDEST PUSH1 0x40 DUP1 MLOAD SWAP4 DUP5 MSTORE PUSH1 0x20 DUP5 ADD SWAP3 SWAP1 SWAP3 MSTORE SWAP1 DUP3 ADD MSTORE PUSH1 0x60 ADD PUSH2 0x40E JUMP JUMPDEST PUSH1 0x0 SLOAD PUSH2 0x606 SWAP1 PUSH1 0x1 PUSH1 0x1 PUSH1 0xA0 SHL SUB AND DUP2 JUMP JUMPDEST PUSH2 0x46B PUSH2 0x6F4 CALLDATASIZE PUSH1 0x4 PUSH2 0x2F53 JUMP JUMPDEST PUSH2 0x163E JUMP JUMPDEST PUSH2 0x46B PUSH2 0x707 CALLDATASIZE PUSH1 0x4 PUSH2 0x2F53 JUMP JUMPDEST PUSH2 0x169F JUMP JUMPDEST PUSH1 0x22 SLOAD PUSH2 0x50D SWAP1 PUSH3 0x10000 SWAP1 DIV PUSH1 0xFF AND DUP2 JUMP JUMPDEST PUSH2 0x50D PUSH2 0x72D CALLDATASIZE PUSH1 0x4 PUSH2 0x30A6 JUMP JUMPDEST PUSH1 0x20 DUP1 DUP1 MSTORE PUSH1 0x0 SWAP3 DUP4 MSTORE PUSH1 0x40 DUP1 DUP5 KECCAK256 SWAP1 SWAP2 MSTORE SWAP1 DUP3 MSTORE SWAP1 KECCAK256 SLOAD PUSH1 0xFF AND DUP2 JUMP JUMPDEST PUSH2 0x46B PUSH2 0x759 CALLDATASIZE PUSH1 0x4 PUSH2 0x2F53 JUMP JUMPDEST PUSH2 0x1707 JUMP JUMPDEST PUSH2 0x42A PUSH1 0x12 SLOAD DUP2 JUMP JUMPDEST PUSH2 0x46B PUSH2 0x176A JUMP JUMPDEST PUSH2 0x46B PUSH2 0x77D CALLDATASIZE PUSH1 0x4 PUSH2 0x2F87 JUMP JUMPDEST PUSH2 0x17C6 JUMP JUMPDEST PUSH2 0x42A PUSH1 0xC SLOAD DUP2 JUMP JUMPDEST PUSH1 0x22 SLOAD PUSH2 0x50D SWAP1 PUSH6 0x10000000000 SWAP1 DIV PUSH1 0xFF AND DUP2 JUMP JUMPDEST PUSH2 0x46B PUSH2 0x7AF CALLDATASIZE PUSH1 0x4 PUSH2 0x2F53 JUMP JUMPDEST PUSH2 0x1914 JUMP JUMPDEST PUSH2 0x42A PUSH2 0x7C2 CALLDATASIZE PUSH1 0x4 PUSH2 0x2F53 JUMP JUMPDEST PUSH1 0x18 PUSH1 0x20 MSTORE PUSH1 0x0 SWAP1 DUP2 MSTORE PUSH1 0x40 SWAP1 KECCAK256 SLOAD DUP2 JUMP JUMPDEST PUSH2 0x42A PUSH1 0xA SLOAD DUP2 JUMP JUMPDEST PUSH2 0x46B PUSH2 0x7EB CALLDATASIZE PUSH1 0x4 PUSH2 0x2F6E JUMP JUMPDEST PUSH2 0x1975 JUMP JUMPDEST PUSH2 0x3FD PUSH2 0x1A83 JUMP JUMPDEST PUSH2 0x42A PUSH1 0xB SLOAD DUP2 JUMP JUMPDEST PUSH2 0x46B PUSH2 0x1B12 JUMP JUMPDEST PUSH1 0x7 SLOAD PUSH2 0x606 SWAP1 PUSH1 0x1 PUSH1 0x1 PUSH1 0xA0 SHL SUB AND DUP2 JUMP JUMPDEST PUSH2 0x46B PUSH2 0x82A CALLDATASIZE PUSH1 0x4 PUSH2 0x30E7 JUMP JUMPDEST PUSH2 0x1B72 JUMP JUMPDEST PUSH1 0x1A SLOAD PUSH2 0x42A JUMP JUMPDEST PUSH2 0x46B PUSH2 0x1C0C JUMP JUMPDEST PUSH1 0x22 SLOAD PUSH2 0x50D SWAP1 PUSH4 0x1000000 SWAP1 DIV PUSH1 0xFF AND DUP2 JUMP JUMPDEST PUSH2 0x46B PUSH2 0x861 CALLDATASIZE PUSH1 0x4 PUSH2 0x307C JUMP JUMPDEST PUSH2 0x1C6A JUMP JUMPDEST PUSH2 0x42A PUSH1 0x9 SLOAD DUP2 JUMP JUMPDEST PUSH2 0x46B PUSH2 0x1D32 JUMP JUMPDEST PUSH2 0x50D PUSH2 0x885 CALLDATASIZE PUSH1 0x4 PUSH2 0x2F53 JUMP JUMPDEST PUSH1 0x1F PUSH1 0x20 MSTORE PUSH1 0x0 SWAP1 DUP2 MSTORE PUSH1 0x40 SWAP1 KECCAK256 SLOAD PUSH1 0xFF AND DUP2 JUMP JUMPDEST PUSH2 0x46B PUSH2 0x8A8 CALLDATASIZE PUSH1 0x4 PUSH2 0x2F53 JUMP JUMPDEST PUSH2 0x1D96 JUMP JUMPDEST PUSH2 0x42A PUSH2 0x8BB CALLDATASIZE PUSH1 0x4 PUSH2 0x2F53 JUMP JUMPDEST PUSH2 0x1E2D JUMP JUMPDEST PUSH1 0x22 SLOAD PUSH2 0x50D SWAP1 PUSH2 0x100 SWAP1 DIV PUSH1 0xFF AND DUP2 JUMP JUMPDEST PUSH2 0x42A PUSH2 0x8E0 CALLDATASIZE PUSH1 0x4 PUSH2 0x2F53 JUMP JUMPDEST PUSH1 0x17 PUSH1 0x20 MSTORE PUSH1 0x0 SWAP1 DUP2 MSTORE PUSH1 0x40 SWAP1 KECCAK256 SLOAD DUP2 JUMP JUMPDEST PUSH2 0x42A PUSH1 0xE SLOAD DUP2 JUMP JUMPDEST PUSH2 0x46B PUSH2 0x1E60 JUMP JUMPDEST PUSH1 0x0 DUP1 PUSH1 0x0 DUP1 PUSH2 0x911 PUSH2 0x1A83 JUMP JUMPDEST PUSH1 0x1 PUSH1 0x1 PUSH1 0xA0 SHL SUB DUP8 AND PUSH1 0x0 SWAP1 DUP2 MSTORE PUSH1 0x1D PUSH1 0x20 MSTORE PUSH1 0x40 SWAP1 KECCAK256 SLOAD SWAP2 SWAP4 POP SWAP2 POP PUSH2 0x940 JUMPI POP PUSH1 0x0 SWAP5 DUP6 SWAP5 POP SWAP3 POP POP POP JUMP JUMPDEST PUSH1 0x1 PUSH1 0x1 PUSH1 0xA0 SHL SUB DUP6 AND PUSH1 0x0 SWAP1 DUP2 MSTORE PUSH1 0x18 PUSH1 0x20 SWAP1 DUP2 MSTORE PUSH1 0x40 DUP1 DUP4 KECCAK256 SLOAD PUSH1 0x16 SWAP1 SWAP3 MSTORE SWAP1 SWAP2 KECCAK256 SLOAD PUSH2 0x9B2 SWAP2 SWAP1 PUSH2 0x9AC SWAP1 PUSH8 0xDE0B6B3A7640000 SWAP1 PUSH2 0x9A6 SWAP1 PUSH2 0x987 SWAP1 DUP9 SWAP1 PUSH2 0x1F03 JUMP JUMPDEST PUSH1 0x1 PUSH1 0x1 PUSH1 0xA0 SHL SUB DUP12 AND PUSH1 0x0 SWAP1 DUP2 MSTORE PUSH1 0x1D PUSH1 0x20 MSTORE PUSH1 0x40 SWAP1 KECCAK256 SLOAD SWAP1 PUSH2 0x1F45 JUMP JUMPDEST SWAP1 PUSH2 0x1FC4 JUMP JUMPDEST SWAP1 PUSH2 0x1E9D JUMP JUMPDEST PUSH1 0x1 PUSH1 0x1 PUSH1 0xA0 SHL SUB DUP7 AND PUSH1 0x0 SWAP1 DUP2 MSTORE PUSH1 0x19 PUSH1 0x20 SWAP1 DUP2 MSTORE PUSH1 0x40 DUP1 DUP4 KECCAK256 SLOAD PUSH1 0x17 SWAP1 SWAP3 MSTORE SWAP1 SWAP2 KECCAK256 SLOAD PUSH2 0xA18 SWAP2 SWAP1 PUSH2 0x9AC SWAP1 PUSH8 0xDE0B6B3A7640000 SWAP1 PUSH2 0x9A6 SWAP1 PUSH2 0x9F9 SWAP1 DUP9 SWAP1 PUSH2 0x1F03 JUMP JUMPDEST PUSH1 0x1 PUSH1 0x1 PUSH1 0xA0 SHL SUB DUP13 AND PUSH1 0x0 SWAP1 DUP2 MSTORE PUSH1 0x1D PUSH1 0x20 MSTORE PUSH1 0x40 SWAP1 KECCAK256 SLOAD SWAP1 PUSH2 0x1F45 JUMP JUMPDEST SWAP4 POP SWAP4 POP POP POP SWAP2 POP SWAP2 JUMP JUMPDEST PUSH1 0x0 DUP1 PUSH2 0xA65 PUSH2 0xA56 PUSH1 0xC SLOAD PUSH2 0x9A6 PUSH2 0xA4F PUSH8 0xDE0B6B3A7640000 PUSH1 0xB SLOAD PUSH2 0x1F03 SWAP1 SWAP2 SWAP1 PUSH4 0xFFFFFFFF AND JUMP JUMPDEST DUP8 SWAP1 PUSH2 0x1F45 JUMP JUMPDEST PUSH8 0xDE0B6B3A7640000 SWAP1 PUSH2 0x1E9D JUMP JUMPDEST SWAP1 POP PUSH1 0xB SLOAD DUP2 GT ISZERO PUSH2 0xA76 JUMPI POP PUSH1 0xB SLOAD JUMPDEST SWAP3 SWAP2 POP POP JUMP JUMPDEST PUSH1 0x0 SLOAD PUSH1 0x1 PUSH1 0x1 PUSH1 0xA0 SHL SUB AND CALLER EQ PUSH2 0xAF3 JUMPI PUSH1 0x40 MLOAD PUSH3 0x461BCD PUSH1 0xE5 SHL DUP2 MSTORE PUSH1 0x20 PUSH1 0x4 DUP3 ADD MSTORE PUSH1 0x2F PUSH1 0x24 DUP3 ADD MSTORE PUSH32 0x4F6E6C792074686520636F6E7472616374206F776E6572206D61792070657266 PUSH1 0x44 DUP3 ADD MSTORE PUSH15 0x37B936903A3434B99030B1BA34B7B7 PUSH1 0x89 SHL PUSH1 0x64 DUP3 ADD MSTORE PUSH1 0x84 ADD JUMPDEST PUSH1 0x40 MLOAD DUP1 SWAP2 SUB SWAP1 REVERT JUMPDEST PUSH1 0x1 DUP1 SLOAD PUSH1 0x1 PUSH1 0x1 PUSH1 0xA0 SHL SUB NOT AND PUSH1 0x1 PUSH1 0x1 PUSH1 0xA0 SHL SUB DUP4 AND SWAP1 DUP2 OR SWAP1 SWAP2 SSTORE PUSH1 0x40 MLOAD SWAP1 DUP2 MSTORE PUSH32 0x906A1C6BD7E3091EA86693DD029A831C19049CE77F1DCE2CE0BAB1CACBABCE22 SWAP1 PUSH1 0x20 ADD JUMPDEST PUSH1 0x40 MLOAD DUP1 SWAP2 SUB SWAP1 LOG1 POP JUMP JUMPDEST PUSH1 0x0 DUP1 PUSH2 0xB54 DUP4 PUSH2 0x1E2D JUMP JUMPDEST SWAP1 POP DUP1 ISZERO PUSH2 0xC24 JUMPI PUSH1 0x3 SLOAD PUSH1 0x40 MLOAD PUSH4 0x70A08231 PUSH1 0xE0 SHL DUP2 MSTORE PUSH1 0x1 PUSH1 0x1 PUSH1 0xA0 SHL SUB DUP6 DUP2 AND PUSH1 0x4 DUP4 ADD MSTORE PUSH1 0x0 SWAP3 PUSH2 0xBE6 SWAP3 DUP6 SWAP3 PUSH2 0x9A6 SWAP3 PUSH8 0xDE0B6B3A7640000 SWAP3 SWAP2 AND SWAP1 PUSH4 0x70A08231 SWAP1 PUSH1 0x24 ADD PUSH1 0x20 PUSH1 0x40 MLOAD DUP1 DUP4 SUB DUP2 DUP7 GAS STATICCALL ISZERO DUP1 ISZERO PUSH2 0xBBC JUMPI RETURNDATASIZE PUSH1 0x0 DUP1 RETURNDATACOPY RETURNDATASIZE PUSH1 0x0 REVERT JUMPDEST POP POP POP POP PUSH1 0x40 MLOAD RETURNDATASIZE PUSH1 0x1F NOT PUSH1 0x1F DUP3 ADD AND DUP3 ADD DUP1 PUSH1 0x40 MSTORE POP DUP2 ADD SWAP1 PUSH2 0xBE0 SWAP2 SWAP1 PUSH2 0x3120 JUMP JUMPDEST SWAP1 PUSH2 0x1F45 JUMP JUMPDEST SWAP1 POP PUSH1 0x0 PUSH2 0xC0B PUSH8 0xDE0B6B3A7640000 PUSH2 0x9A6 PUSH1 0xF SLOAD DUP6 PUSH2 0x1F45 SWAP1 SWAP2 SWAP1 PUSH4 0xFFFFFFFF AND JUMP JUMPDEST SWAP1 POP PUSH1 0xF SLOAD DUP2 GT ISZERO PUSH2 0xC1C JUMPI POP PUSH1 0xF SLOAD JUMPDEST SWAP5 SWAP4 POP POP POP POP JUMP JUMPDEST POP PUSH1 0x0 SWAP3 SWAP2 POP POP JUMP JUMPDEST PUSH1 0x2 DUP1 SLOAD EQ ISZERO PUSH2 0xC4F JUMPI PUSH1 0x40 MLOAD PUSH3 0x461BCD PUSH1 0xE5 SHL DUP2 MSTORE PUSH1 0x4 ADD PUSH2 0xAEA SWAP1 PUSH2 0x3139 JUMP JUMPDEST PUSH1 0x2 DUP1 SSTORE PUSH2 0xC60 CALLER DUP1 DUP5 DUP5 TIMESTAMP PUSH2 0x2006 JUMP JUMPDEST POP POP PUSH1 0x1 PUSH1 0x2 SSTORE JUMP JUMPDEST PUSH1 0x0 SLOAD PUSH1 0x1 PUSH1 0x1 PUSH1 0xA0 SHL SUB AND CALLER EQ DUP1 PUSH2 0xC8C JUMPI POP PUSH1 0x7 SLOAD PUSH1 0x1 PUSH1 0x1 PUSH1 0xA0 SHL SUB AND CALLER EQ JUMPDEST PUSH2 0xCA8 JUMPI PUSH1 0x40 MLOAD PUSH3 0x461BCD PUSH1 0xE5 SHL DUP2 MSTORE PUSH1 0x4 ADD PUSH2 0xAEA SWAP1 PUSH2 0x3170 JUMP JUMPDEST PUSH1 0x1 PUSH1 0x1 PUSH1 0xA0 SHL SUB DUP2 AND PUSH1 0x0 SWAP1 DUP2 MSTORE PUSH1 0x1F PUSH1 0x20 MSTORE PUSH1 0x40 SWAP1 KECCAK256 SLOAD PUSH1 0xFF AND ISZERO ISZERO PUSH1 0x1 EQ PUSH2 0xD0B JUMPI PUSH1 0x40 MLOAD PUSH3 0x461BCD PUSH1 0xE5 SHL DUP2 MSTORE PUSH1 0x20 PUSH1 0x4 DUP3 ADD MSTORE PUSH1 0x13 PUSH1 0x24 DUP3 ADD MSTORE PUSH19 0x1059191C995CDCC81B9BDB995E1A5CDD185B9D PUSH1 0x6A SHL PUSH1 0x44 DUP3 ADD MSTORE PUSH1 0x64 ADD PUSH2 0xAEA JUMP JUMPDEST PUSH1 0x1 PUSH1 0x1 PUSH1 0xA0 SHL SUB AND PUSH1 0x0 SWAP1 DUP2 MSTORE PUSH1 0x1F PUSH1 0x20 MSTORE PUSH1 0x40 SWAP1 KECCAK256 DUP1 SLOAD PUSH1 0xFF NOT AND SWAP1 SSTORE JUMP JUMPDEST PUSH1 0x0 DUP1 PUSH2 0xD46 PUSH1 0x13 SLOAD PUSH1 0x11 SLOAD PUSH2 0x1F45 SWAP1 SWAP2 SWAP1 PUSH4 0xFFFFFFFF AND JUMP JUMPDEST PUSH1 0x13 SLOAD PUSH1 0x12 SLOAD PUSH2 0xD55 SWAP2 PUSH2 0x1F45 JUMP JUMPDEST SWAP2 POP SWAP2 POP SWAP1 SWAP2 JUMP JUMPDEST PUSH1 0x1 PUSH1 0x1 PUSH1 0xA0 SHL SUB DUP2 AND PUSH1 0x0 SWAP1 DUP2 MSTORE PUSH1 0x1E PUSH1 0x20 SWAP1 DUP2 MSTORE PUSH1 0x40 DUP1 DUP4 KECCAK256 DUP1 SLOAD DUP3 MLOAD DUP2 DUP6 MUL DUP2 ADD DUP6 ADD SWAP1 SWAP4 MSTORE DUP1 DUP4 MSTORE PUSH1 0x60 SWAP5 SWAP3 SWAP4 SWAP2 SWAP3 SWAP1 SWAP2 DUP5 ADD JUMPDEST DUP3 DUP3 LT ISZERO PUSH2 0xDF9 JUMPI DUP4 DUP3 SWAP1 PUSH1 0x0 MSTORE PUSH1 0x20 PUSH1 0x0 KECCAK256 SWAP1 PUSH1 0x5 MUL ADD PUSH1 0x40 MLOAD DUP1 PUSH1 0xA0 ADD PUSH1 0x40 MSTORE SWAP1 DUP2 PUSH1 0x0 DUP3 ADD SLOAD DUP2 MSTORE PUSH1 0x20 ADD PUSH1 0x1 DUP3 ADD SLOAD DUP2 MSTORE PUSH1 0x20 ADD PUSH1 0x2 DUP3 ADD SLOAD DUP2 MSTORE PUSH1 0x20 ADD PUSH1 0x3 DUP3 ADD SLOAD DUP2 MSTORE PUSH1 0x20 ADD PUSH1 0x4 DUP3 ADD SLOAD DUP2 MSTORE POP POP DUP2 MSTORE PUSH1 0x20 ADD SWAP1 PUSH1 0x1 ADD SWAP1 PUSH2 0xD95 JUMP JUMPDEST POP POP POP POP SWAP1 POP SWAP2 SWAP1 POP JUMP JUMPDEST PUSH1 0x22 SLOAD PUSH1 0xFF PUSH2 0x100 SWAP1 SWAP2 DIV AND ISZERO ISZERO PUSH1 0x1 EQ PUSH2 0xE31 JUMPI PUSH1 0x40 MLOAD PUSH3 0x461BCD PUSH1 0xE5 SHL DUP2 MSTORE PUSH1 0x4 ADD PUSH2 0xAEA SWAP1 PUSH2 0x319F JUMP JUMPDEST PUSH1 0x1 PUSH1 0x1 PUSH1 0xA0 SHL SUB DUP5 AND PUSH1 0x0 SWAP1 DUP2 MSTORE PUSH1 0x20 DUP1 DUP1 MSTORE PUSH1 0x40 DUP1 DUP4 KECCAK256 CALLER DUP5 MSTORE SWAP1 SWAP2 MSTORE SWAP1 KECCAK256 SLOAD PUSH1 0xFF AND DUP1 ISZERO PUSH2 0xE71 JUMPI POP CALLER PUSH1 0x0 SWAP1 DUP2 MSTORE PUSH1 0x1F PUSH1 0x20 MSTORE PUSH1 0x40 SWAP1 KECCAK256 SLOAD PUSH1 0xFF AND JUMPDEST PUSH2 0xEBD JUMPI PUSH1 0x40 MLOAD PUSH3 0x461BCD PUSH1 0xE5 SHL DUP2 MSTORE PUSH1 0x20 PUSH1 0x4 DUP3 ADD MSTORE PUSH1 0x1A PUSH1 0x24 DUP3 ADD MSTORE PUSH32 0x4D69672E20696E76616C6964206F7220756E617070726F766564000000000000 PUSH1 0x44 DUP3 ADD MSTORE PUSH1 0x64 ADD PUSH2 0xAEA JUMP JUMPDEST PUSH2 0xECA DUP5 CALLER DUP6 DUP6 DUP6 PUSH2 0x2006 JUMP JUMPDEST POP POP POP POP JUMP JUMPDEST PUSH1 0x0 SLOAD PUSH1 0x1 PUSH1 0x1 PUSH1 0xA0 SHL SUB AND CALLER EQ DUP1 PUSH2 0xEF3 JUMPI POP PUSH1 0x7 SLOAD PUSH1 0x1 PUSH1 0x1 PUSH1 0xA0 SHL SUB AND CALLER EQ JUMPDEST PUSH2 0xF0F JUMPI PUSH1 0x40 MLOAD PUSH3 0x461BCD PUSH1 0xE5 SHL DUP2 MSTORE PUSH1 0x4 ADD PUSH2 0xAEA SWAP1 PUSH2 0x3170 JUMP JUMPDEST PUSH1 0x22 DUP1 SLOAD PUSH6 0xFF0000000000 NOT DUP2 AND PUSH6 0x10000000000 SWAP2 DUP3 SWAP1 DIV PUSH1 0xFF AND ISZERO SWAP1 SWAP2 MUL OR SWAP1 SSTORE JUMP JUMPDEST PUSH1 0x0 DUP1 PUSH1 0x2 DUP1 SLOAD EQ ISZERO PUSH2 0xF59 JUMPI PUSH1 0x40 MLOAD PUSH3 0x461BCD PUSH1 0xE5 SHL DUP2 MSTORE PUSH1 0x4 ADD PUSH2 0xAEA SWAP1 PUSH2 0x3139 JUMP JUMPDEST PUSH1 0x2 DUP1 SSTORE PUSH1 0x22 SLOAD PUSH5 0x100000000 SWAP1 DIV PUSH1 0xFF AND ISZERO PUSH2 0xFB8 JUMPI PUSH1 0x40 MLOAD PUSH3 0x461BCD PUSH1 0xE5 SHL DUP2 MSTORE PUSH1 0x20 PUSH1 0x4 DUP3 ADD MSTORE PUSH1 0x19 PUSH1 0x24 DUP3 ADD MSTORE PUSH32 0x5265776172647320636F6C6C656374696F6E2070617573656400000000000000 PUSH1 0x44 DUP3 ADD MSTORE PUSH1 0x64 ADD PUSH2 0xAEA JUMP JUMPDEST PUSH2 0xFC2 CALLER CALLER PUSH2 0x23BF JUMP JUMPDEST SWAP2 POP SWAP2 POP PUSH1 0x1 PUSH1 0x2 SSTORE SWAP1 SWAP2 JUMP JUMPDEST PUSH1 0x2 DUP1 SLOAD EQ ISZERO PUSH2 0xFF1 JUMPI PUSH1 0x40 MLOAD PUSH3 0x461BCD PUSH1 0xE5 SHL DUP2 MSTORE PUSH1 0x4 ADD PUSH2 0xAEA SWAP1 PUSH2 0x3139 JUMP JUMPDEST PUSH1 0x2 DUP1 SSTORE PUSH1 0x22 SLOAD PUSH4 0x1000000 SWAP1 DIV PUSH1 0xFF AND ISZERO PUSH2 0x1044 JUMPI PUSH1 0x40 MLOAD PUSH3 0x461BCD PUSH1 0xE5 SHL DUP2 MSTORE PUSH1 0x20 PUSH1 0x4 DUP3 ADD MSTORE PUSH1 0x12 PUSH1 0x24 DUP3 ADD MSTORE PUSH18 0x15DA5D1A191C985DD85B1CC81C185D5CD959 PUSH1 0x72 SHL PUSH1 0x44 DUP3 ADD MSTORE PUSH1 0x64 ADD PUSH2 0xAEA JUMP JUMPDEST PUSH2 0x104F CALLER CALLER DUP4 PUSH2 0x25CD JUMP JUMPDEST POP PUSH1 0x1 PUSH1 0x2 SSTORE JUMP JUMPDEST PUSH1 0x0 SLOAD PUSH1 0x1 PUSH1 0x1 PUSH1 0xA0 SHL SUB AND CALLER EQ DUP1 PUSH2 0x107A JUMPI POP PUSH1 0x7 SLOAD PUSH1 0x1 PUSH1 0x1 PUSH1 0xA0 SHL SUB AND CALLER EQ JUMPDEST PUSH2 0x1096 JUMPI PUSH1 0x40 MLOAD PUSH3 0x461BCD PUSH1 0xE5 SHL DUP2 MSTORE PUSH1 0x4 ADD PUSH2 0xAEA SWAP1 PUSH2 0x3170 JUMP JUMPDEST PUSH8 0xDE0B6B3A7640000 DUP4 LT ISZERO PUSH2 0x10FA JUMPI PUSH1 0x40 MLOAD PUSH3 0x461BCD PUSH1 0xE5 SHL DUP2 MSTORE PUSH1 0x20 PUSH1 0x4 DUP3 ADD MSTORE PUSH1 0x24 DUP1 DUP3 ADD MSTORE PUSH32 0x4D756C74206D757374206265203E3D204D554C5449504C4945525F5052454349 PUSH1 0x44 DUP3 ADD MSTORE PUSH4 0x29A4A7A7 PUSH1 0xE1 SHL PUSH1 0x64 DUP3 ADD MSTORE PUSH1 0x84 ADD PUSH2 0xAEA JUMP JUMPDEST PUSH1 0x0 DUP2 GT PUSH2 0x114A JUMPI PUSH1 0x40 MLOAD PUSH3 0x461BCD PUSH1 0xE5 SHL DUP2 MSTORE PUSH1 0x20 PUSH1 0x4 DUP3 ADD MSTORE PUSH1 0x19 PUSH1 0x24 DUP3 ADD MSTORE PUSH32 0x7665433320706374206D6178206D757374206265203E3D203000000000000000 PUSH1 0x44 DUP3 ADD MSTORE PUSH1 0x64 ADD PUSH2 0xAEA JUMP JUMPDEST PUSH1 0xB DUP4 SWAP1 SSTORE PUSH1 0xF DUP3 SWAP1 SSTORE PUSH1 0xE DUP2 SWAP1 SSTORE PUSH1 0x40 MLOAD DUP3 DUP2 MSTORE PUSH32 0x6B04D7611E06FE226EEBFD39936D0C17ED4750A86EC9BD223924335D95528868 SWAP1 PUSH1 0x20 ADD PUSH1 0x40 MLOAD DUP1 SWAP2 SUB SWAP1 LOG1 PUSH32 0xA1676084A9EEA08C6F205B60799323B364A1BD8E10ABA89F0FBD94CFBF68B5DD PUSH1 0xB SLOAD PUSH1 0x40 MLOAD PUSH2 0x11BF SWAP2 DUP2 MSTORE PUSH1 0x20 ADD SWAP1 JUMP JUMPDEST PUSH1 0x40 MLOAD DUP1 SWAP2 SUB SWAP1 LOG1 PUSH32 0x5341DC8814A88B3B792BC9DE97825AF6A74034E43F5263D2EBC8407936723FE6 PUSH1 0xE SLOAD PUSH1 0x40 MLOAD PUSH2 0x11FA SWAP2 DUP2 MSTORE PUSH1 0x20 ADD SWAP1 JUMP JUMPDEST PUSH1 0x40 MLOAD DUP1 SWAP2 SUB SWAP1 LOG1 POP POP POP JUMP JUMPDEST PUSH1 0x1 SLOAD PUSH1 0x1 PUSH1 0x1 PUSH1 0xA0 SHL SUB AND CALLER EQ PUSH2 0x127F JUMPI PUSH1 0x40 MLOAD PUSH3 0x461BCD PUSH1 0xE5 SHL DUP2 MSTORE PUSH1 0x20 PUSH1 0x4 DUP3 ADD MSTORE PUSH1 0x35 PUSH1 0x24 DUP3 ADD MSTORE PUSH32 0x596F75206D757374206265206E6F6D696E61746564206265666F726520796F75 PUSH1 0x44 DUP3 ADD MSTORE PUSH21 0x2063616E20616363657074206F776E65727368697 PUSH1 0x5C SHL PUSH1 0x64 DUP3 ADD MSTORE PUSH1 0x84 ADD PUSH2 0xAEA JUMP JUMPDEST PUSH1 0x0 SLOAD PUSH1 0x1 SLOAD PUSH1 0x40 DUP1 MLOAD PUSH1 0x1 PUSH1 0x1 PUSH1 0xA0 SHL SUB SWAP4 DUP5 AND DUP2 MSTORE SWAP3 SWAP1 SWAP2 AND PUSH1 0x20 DUP4 ADD MSTORE PUSH32 0xB532073B38C83145E3E5135377A08BF9AAB55BC0FD7C1179CD4FB995D2A5159C SWAP2 ADD PUSH1 0x40 MLOAD DUP1 SWAP2 SUB SWAP1 LOG1 PUSH1 0x1 DUP1 SLOAD PUSH1 0x0 DUP1 SLOAD PUSH1 0x1 PUSH1 0x1 PUSH1 0xA0 SHL SUB NOT SWAP1 DUP2 AND PUSH1 0x1 PUSH1 0x1 PUSH1 0xA0 SHL SUB DUP5 AND OR SWAP1 SWAP2 SSTORE AND SWAP1 SSTORE JUMP JUMPDEST PUSH1 0x0 SLOAD PUSH1 0x1 PUSH1 0x1 PUSH1 0xA0 SHL SUB AND CALLER EQ DUP1 PUSH2 0x1314 JUMPI POP PUSH1 0x7 SLOAD PUSH1 0x1 PUSH1 0x1 PUSH1 0xA0 SHL SUB AND CALLER EQ JUMPDEST PUSH2 0x1330 JUMPI PUSH1 0x40 MLOAD PUSH3 0x461BCD PUSH1 0xE5 SHL DUP2 MSTORE PUSH1 0x4 ADD PUSH2 0xAEA SWAP1 PUSH2 0x3170 JUMP JUMPDEST PUSH1 0x22 DUP1 SLOAD PUSH5 0xFF00000000 NOT DUP2 AND PUSH5 0x100000000 SWAP2 DUP3 SWAP1 DIV PUSH1 0xFF AND ISZERO SWAP1 SWAP2 MUL OR SWAP1 SSTORE JUMP JUMPDEST PUSH1 0x0 SLOAD PUSH1 0x1 PUSH1 0x1 PUSH1 0xA0 SHL SUB AND CALLER EQ DUP1 PUSH2 0x1376 JUMPI POP PUSH1 0x7 SLOAD PUSH1 0x1 PUSH1 0x1 PUSH1 0xA0 SHL SUB AND CALLER EQ JUMPDEST PUSH2 0x1392 JUMPI PUSH1 0x40 MLOAD PUSH3 0x461BCD PUSH1 0xE5 SHL DUP2 MSTORE PUSH1 0x4 ADD PUSH2 0xAEA SWAP1 PUSH2 0x3170 JUMP JUMPDEST PUSH1 0x22 SLOAD PUSH2 0x100 SWAP1 DIV PUSH1 0xFF AND PUSH2 0x13CF JUMPI PUSH1 0x6 SLOAD PUSH1 0x1 PUSH1 0x1 PUSH1 0xA0 SHL SUB DUP4 DUP2 AND SWAP2 AND EQ ISZERO PUSH2 0x13CF JUMPI PUSH1 0x40 MLOAD PUSH3 0x461BCD PUSH1 0xE5 SHL DUP2 MSTORE PUSH1 0x4 ADD PUSH2 0xAEA SWAP1 PUSH2 0x319F JUMP JUMPDEST PUSH1 0x0 SLOAD PUSH1 0x40 MLOAD PUSH4 0xA9059CBB PUSH1 0xE0 SHL DUP2 MSTORE PUSH1 0x1 PUSH1 0x1 PUSH1 0xA0 SHL SUB SWAP2 DUP3 AND PUSH1 0x4 DUP3 ADD MSTORE PUSH1 0x24 DUP2 ADD DUP4 SWAP1 MSTORE SWAP1 DUP4 AND SWAP1 PUSH4 0xA9059CBB SWAP1 PUSH1 0x44 ADD PUSH1 0x20 PUSH1 0x40 MLOAD DUP1 DUP4 SUB DUP2 PUSH1 0x0 DUP8 GAS CALL ISZERO DUP1 ISZERO PUSH2 0x1422 JUMPI RETURNDATASIZE PUSH1 0x0 DUP1 RETURNDATACOPY RETURNDATASIZE PUSH1 0x0 REVERT JUMPDEST POP POP POP POP PUSH1 0x40 MLOAD RETURNDATASIZE PUSH1 0x1F NOT PUSH1 0x1F DUP3 ADD AND DUP3 ADD DUP1 PUSH1 0x40 MSTORE POP DUP2 ADD SWAP1 PUSH2 0x1446 SWAP2 SWAP1 PUSH2 0x31C9 JUMP JUMPDEST POP PUSH1 0x40 DUP1 MLOAD PUSH1 0x1 PUSH1 0x1 PUSH1 0xA0 SHL SUB DUP5 AND DUP2 MSTORE PUSH1 0x20 DUP2 ADD DUP4 SWAP1 MSTORE PUSH32 0x8C1256B8896378CD5044F80C202F9772B9D77DC85C8A6EB51967210B09BFAA28 SWAP2 ADD JUMPDEST PUSH1 0x40 MLOAD DUP1 SWAP2 SUB SWAP1 LOG1 POP POP JUMP JUMPDEST PUSH1 0x1 PUSH1 0x1 PUSH1 0xA0 SHL SUB DUP2 AND PUSH1 0x0 SWAP1 DUP2 MSTORE PUSH1 0x1D PUSH1 0x20 MSTORE PUSH1 0x40 DUP2 KECCAK256 SLOAD SWAP1 DUP1 PUSH2 0x14B2 DUP5 PUSH2 0xB48 JUMP JUMPDEST PUSH1 0x1 PUSH1 0x1 PUSH1 0xA0 SHL SUB DUP6 AND PUSH1 0x0 SWAP1 DUP2 MSTORE PUSH1 0x1C PUSH1 0x20 MSTORE PUSH1 0x40 DUP2 KECCAK256 SLOAD SWAP2 SWAP4 POP SWAP1 ISZERO DUP1 ISZERO PUSH2 0x14F2 JUMPI POP PUSH1 0x1 PUSH1 0x1 PUSH1 0xA0 SHL SUB DUP6 AND PUSH1 0x0 SWAP1 DUP2 MSTORE PUSH1 0x1D PUSH1 0x20 MSTORE PUSH1 0x40 SWAP1 KECCAK256 SLOAD ISZERO JUMPDEST ISZERO PUSH2 0x14FE JUMPI POP DUP2 PUSH2 0x152C JUMP JUMPDEST PUSH1 0x1 PUSH1 0x1 PUSH1 0xA0 SHL SUB DUP6 AND PUSH1 0x0 SWAP1 DUP2 MSTORE PUSH1 0x10 PUSH1 0x20 MSTORE PUSH1 0x40 SWAP1 KECCAK256 SLOAD PUSH2 0x1529 SWAP1 PUSH1 0x2 SWAP1 PUSH2 0x9A6 SWAP1 DUP7 SWAP1 PUSH2 0x1E9D JUMP JUMPDEST SWAP1 POP JUMPDEST PUSH1 0x0 SWAP2 POP PUSH1 0x0 JUMPDEST PUSH1 0x1 PUSH1 0x1 PUSH1 0xA0 SHL SUB DUP7 AND PUSH1 0x0 SWAP1 DUP2 MSTORE PUSH1 0x1E PUSH1 0x20 MSTORE PUSH1 0x40 SWAP1 KECCAK256 SLOAD DUP2 LT ISZERO PUSH2 0x1635 JUMPI PUSH1 0x1 PUSH1 0x1 PUSH1 0xA0 SHL SUB DUP7 AND PUSH1 0x0 SWAP1 DUP2 MSTORE PUSH1 0x1E PUSH1 0x20 MSTORE PUSH1 0x40 DUP2 KECCAK256 DUP1 SLOAD DUP4 SWAP1 DUP2 LT PUSH2 0x157D JUMPI PUSH2 0x157D PUSH2 0x31E6 JUMP JUMPDEST SWAP1 PUSH1 0x0 MSTORE PUSH1 0x20 PUSH1 0x0 KECCAK256 SWAP1 PUSH1 0x5 MUL ADD PUSH1 0x40 MLOAD DUP1 PUSH1 0xA0 ADD PUSH1 0x40 MSTORE SWAP1 DUP2 PUSH1 0x0 DUP3 ADD SLOAD DUP2 MSTORE PUSH1 0x20 ADD PUSH1 0x1 DUP3 ADD SLOAD DUP2 MSTORE PUSH1 0x20 ADD PUSH1 0x2 DUP3 ADD SLOAD DUP2 MSTORE PUSH1 0x20 ADD PUSH1 0x3 DUP3 ADD SLOAD DUP2 MSTORE PUSH1 0x20 ADD PUSH1 0x4 DUP3 ADD SLOAD DUP2 MSTORE POP POP SWAP1 POP PUSH1 0x0 DUP2 PUSH1 0x80 ADD MLOAD SWAP1 POP TIMESTAMP DUP3 PUSH1 0x60 ADD MLOAD GT PUSH2 0x15E9 JUMPI POP PUSH8 0xDE0B6B3A7640000 JUMPDEST PUSH1 0x40 DUP3 ADD MLOAD PUSH1 0x0 PUSH2 0x1610 PUSH8 0xDE0B6B3A7640000 PUSH2 0x9A6 PUSH2 0x1609 DUP7 DUP11 PUSH2 0x1E9D JUMP JUMPDEST DUP6 SWAP1 PUSH2 0x1F45 JUMP JUMPDEST SWAP1 POP PUSH2 0x161C DUP8 DUP3 PUSH2 0x1E9D JUMP JUMPDEST SWAP7 POP POP POP POP POP DUP1 DUP1 PUSH2 0x162D SWAP1 PUSH2 0x3212 JUMP JUMPDEST SWAP2 POP POP PUSH2 0x1533 JUMP JUMPDEST POP POP SWAP2 SWAP4 SWAP1 SWAP3 POP JUMP JUMPDEST PUSH1 0x0 SLOAD PUSH1 0x1 PUSH1 0x1 PUSH1 0xA0 SHL SUB AND CALLER EQ DUP1 PUSH2 0x1661 JUMPI POP PUSH1 0x7 SLOAD PUSH1 0x1 PUSH1 0x1 PUSH1 0xA0 SHL SUB AND CALLER EQ JUMPDEST PUSH2 0x167D JUMPI PUSH1 0x40 MLOAD PUSH3 0x461BCD PUSH1 0xE5 SHL DUP2 MSTORE PUSH1 0x4 ADD PUSH2 0xAEA SWAP1 PUSH2 0x3170 JUMP JUMPDEST PUSH1 0x8 DUP1 SLOAD PUSH1 0x1 PUSH1 0x1 PUSH1 0xA0 SHL SUB NOT AND PUSH1 0x1 PUSH1 0x1 PUSH1 0xA0 SHL SUB SWAP3 SWAP1 SWAP3 AND SWAP2 SWAP1 SWAP2 OR SWAP1 SSTORE JUMP JUMPDEST PUSH1 0x0 SLOAD PUSH1 0x1 PUSH1 0x1 PUSH1 0xA0 SHL SUB AND CALLER EQ DUP1 PUSH2 0x16C2 JUMPI POP PUSH1 0x7 SLOAD PUSH1 0x1 PUSH1 0x1 PUSH1 0xA0 SHL SUB AND CALLER EQ JUMPDEST PUSH2 0x16DE JUMPI PUSH1 0x40 MLOAD PUSH3 0x461BCD PUSH1 0xE5 SHL DUP2 MSTORE PUSH1 0x4 ADD PUSH2 0xAEA SWAP1 PUSH2 0x3170 JUMP JUMPDEST PUSH1 0x1 PUSH1 0x1 PUSH1 0xA0 SHL SUB AND PUSH1 0x0 SWAP1 DUP2 MSTORE PUSH1 0x21 PUSH1 0x20 MSTORE PUSH1 0x40 SWAP1 KECCAK256 DUP1 SLOAD PUSH1 0xFF NOT DUP2 AND PUSH1 0xFF SWAP1 SWAP2 AND ISZERO OR SWAP1 SSTORE JUMP JUMPDEST PUSH1 0x0 SLOAD PUSH1 0x1 PUSH1 0x1 PUSH1 0xA0 SHL SUB AND CALLER EQ DUP1 PUSH2 0x172A JUMPI POP PUSH1 0x7 SLOAD PUSH1 0x1 PUSH1 0x1 PUSH1 0xA0 SHL SUB AND CALLER EQ JUMPDEST PUSH2 0x1746 JUMPI PUSH1 0x40 MLOAD PUSH3 0x461BCD PUSH1 0xE5 SHL DUP2 MSTORE PUSH1 0x4 ADD PUSH2 0xAEA SWAP1 PUSH2 0x3170 JUMP JUMPDEST PUSH1 0x1 PUSH1 0x1 PUSH1 0xA0 SHL SUB AND PUSH1 0x0 SWAP1 DUP2 MSTORE PUSH1 0x1F PUSH1 0x20 MSTORE PUSH1 0x40 SWAP1 KECCAK256 DUP1 SLOAD PUSH1 0xFF NOT AND PUSH1 0x1 OR SWAP1 SSTORE JUMP JUMPDEST PUSH1 0x0 SLOAD PUSH1 0x1 PUSH1 0x1 PUSH1 0xA0 SHL SUB AND CALLER EQ DUP1 PUSH2 0x178D JUMPI POP PUSH1 0x7 SLOAD PUSH1 0x1 PUSH1 0x1 PUSH1 0xA0 SHL SUB AND CALLER EQ JUMPDEST PUSH2 0x17A9 JUMPI PUSH1 0x40 MLOAD PUSH3 0x461BCD PUSH1 0xE5 SHL DUP2 MSTORE PUSH1 0x4 ADD PUSH2 0xAEA SWAP1 PUSH2 0x3170 JUMP JUMPDEST PUSH1 0x22 DUP1 SLOAD PUSH2 0xFF00 NOT DUP2 AND PUSH2 0x100 SWAP2 DUP3 SWAP1 DIV PUSH1 0xFF AND ISZERO SWAP1 SWAP2 MUL OR SWAP1 SSTORE JUMP JUMPDEST PUSH1 0x0 SLOAD PUSH1 0x1 PUSH1 0x1 PUSH1 0xA0 SHL SUB AND CALLER EQ DUP1 PUSH2 0x17E9 JUMPI POP PUSH1 0x7 SLOAD PUSH1 0x1 PUSH1 0x1 PUSH1 0xA0 SHL SUB AND CALLER EQ JUMPDEST PUSH2 0x1805 JUMPI PUSH1 0x40 MLOAD PUSH3 0x461BCD PUSH1 0xE5 SHL DUP2 MSTORE PUSH1 0x4 ADD PUSH2 0xAEA SWAP1 PUSH2 0x3170 JUMP JUMPDEST PUSH1 0x1 DUP3 LT ISZERO PUSH2 0x1856 JUMPI PUSH1 0x40 MLOAD PUSH3 0x461BCD PUSH1 0xE5 SHL DUP2 MSTORE PUSH1 0x20 PUSH1 0x4 DUP3 ADD MSTORE PUSH1 0x19 PUSH1 0x24 DUP3 ADD MSTORE PUSH32 0x4D756C206D61782074696D65206D757374206265203E3D203100000000000000 PUSH1 0x44 DUP3 ADD MSTORE PUSH1 0x64 ADD PUSH2 0xAEA JUMP JUMPDEST PUSH1 0x1 DUP2 LT ISZERO PUSH2 0x18A7 JUMPI PUSH1 0x40 MLOAD PUSH3 0x461BCD PUSH1 0xE5 SHL DUP2 MSTORE PUSH1 0x20 PUSH1 0x4 DUP3 ADD MSTORE PUSH1 0x19 PUSH1 0x24 DUP3 ADD MSTORE PUSH32 0x4D756C206D696E2074696D65206D757374206265203E3D203100000000000000 PUSH1 0x44 DUP3 ADD MSTORE PUSH1 0x64 ADD PUSH2 0xAEA JUMP JUMPDEST PUSH1 0xC DUP3 SWAP1 SSTORE PUSH1 0xD DUP2 SWAP1 SSTORE PUSH1 0x40 MLOAD DUP3 DUP2 MSTORE PUSH32 0xE3E3FAE480C6F92291358A02BC83F04EE1971D5488596BFFDA7929D57AB470F SWAP1 PUSH1 0x20 ADD PUSH1 0x40 MLOAD DUP1 SWAP2 SUB SWAP1 LOG1 PUSH1 0x40 MLOAD DUP2 DUP2 MSTORE PUSH32 0x534D208D75DFDBFACC1204745DD9B3C4C37E8CFC05EB5E8E3AE538AEDB0A9FA SWAP1 PUSH1 0x20 ADD PUSH2 0x1482 JUMP JUMPDEST PUSH1 0x0 SLOAD PUSH1 0x1 PUSH1 0x1 PUSH1 0xA0 SHL SUB AND CALLER EQ DUP1 PUSH2 0x1937 JUMPI POP PUSH1 0x7 SLOAD PUSH1 0x1 PUSH1 0x1 PUSH1 0xA0 SHL SUB AND CALLER EQ JUMPDEST PUSH2 0x1953 JUMPI PUSH1 0x40 MLOAD PUSH3 0x461BCD PUSH1 0xE5 SHL DUP2 MSTORE PUSH1 0x4 ADD PUSH2 0xAEA SWAP1 PUSH2 0x3170 JUMP JUMPDEST PUSH1 0x7 DUP1 SLOAD PUSH1 0x1 PUSH1 0x1 PUSH1 0xA0 SHL SUB NOT AND PUSH1 0x1 PUSH1 0x1 PUSH1 0xA0 SHL SUB SWAP3 SWAP1 SWAP3 AND SWAP2 SWAP1 SWAP2 OR SWAP1 SSTORE JUMP JUMPDEST PUSH1 0x0 SLOAD PUSH1 0x1 PUSH1 0x1 PUSH1 0xA0 SHL SUB AND CALLER EQ DUP1 PUSH2 0x1998 JUMPI POP PUSH1 0x7 SLOAD PUSH1 0x1 PUSH1 0x1 PUSH1 0xA0 SHL SUB AND CALLER EQ JUMPDEST DUP1 PUSH2 0x19AD JUMPI POP PUSH1 0x8 SLOAD PUSH1 0x1 PUSH1 0x1 PUSH1 0xA0 SHL SUB AND CALLER EQ JUMPDEST PUSH2 0x19F2 JUMPI PUSH1 0x40 MLOAD PUSH3 0x461BCD PUSH1 0xE5 SHL DUP2 MSTORE PUSH1 0x20 PUSH1 0x4 DUP3 ADD MSTORE PUSH1 0x16 PUSH1 0x24 DUP3 ADD MSTORE PUSH22 0x2737BA1037BBB716103A3635961037B91031BA393639 PUSH1 0x51 SHL PUSH1 0x44 DUP3 ADD MSTORE PUSH1 0x64 ADD PUSH2 0xAEA JUMP JUMPDEST PUSH1 0x9 SLOAD ISZERO DUP1 PUSH2 0x1A02 JUMPI POP PUSH1 0x9 SLOAD TIMESTAMP GT JUMPDEST PUSH2 0x1A4E JUMPI PUSH1 0x40 MLOAD PUSH3 0x461BCD PUSH1 0xE5 SHL DUP2 MSTORE PUSH1 0x20 PUSH1 0x4 DUP3 ADD MSTORE PUSH1 0x18 PUSH1 0x24 DUP3 ADD MSTORE PUSH32 0x52657761726420706572696F6420696E636F6D706C6574650000000000000000 PUSH1 0x44 DUP3 ADD MSTORE PUSH1 0x64 ADD PUSH2 0xAEA JUMP JUMPDEST PUSH1 0x13 DUP2 SWAP1 SSTORE PUSH1 0x40 MLOAD DUP2 DUP2 MSTORE PUSH32 0xFB46CA5A5E06D4540D6387B930A7C978BCE0DB5F449EC6B3F5D07C6E1D44F2D3 SWAP1 PUSH1 0x20 ADD PUSH2 0xB3D JUMP JUMPDEST PUSH1 0x0 DUP1 PUSH1 0x1A SLOAD PUSH1 0x0 EQ DUP1 PUSH2 0x1A97 JUMPI POP PUSH1 0x1B SLOAD ISZERO JUMPDEST ISZERO PUSH2 0x1AA8 JUMPI POP POP PUSH1 0x14 SLOAD PUSH1 0x15 SLOAD SWAP1 SWAP2 JUMP JUMPDEST PUSH2 0x1AE0 PUSH2 0x1AD7 PUSH1 0x1B SLOAD PUSH2 0x9A6 PUSH8 0xDE0B6B3A7640000 PUSH2 0xBE0 PUSH1 0x11 SLOAD PUSH2 0xBE0 PUSH1 0xA SLOAD PUSH2 0x1AD1 PUSH2 0x294E JUMP JUMPDEST SWAP1 PUSH2 0x1F03 JUMP JUMPDEST PUSH1 0x14 SLOAD SWAP1 PUSH2 0x1E9D JUMP JUMPDEST PUSH2 0xD55 PUSH2 0x1B09 PUSH1 0x1B SLOAD PUSH2 0x9A6 PUSH8 0xDE0B6B3A7640000 PUSH2 0xBE0 PUSH1 0x12 SLOAD PUSH2 0xBE0 PUSH1 0xA SLOAD PUSH2 0x1AD1 PUSH2 0x294E JUMP JUMPDEST PUSH1 0x15 SLOAD SWAP1 PUSH2 0x1E9D JUMP JUMPDEST PUSH1 0x0 SLOAD PUSH1 0x1 PUSH1 0x1 PUSH1 0xA0 SHL SUB AND CALLER EQ DUP1 PUSH2 0x1B35 JUMPI POP PUSH1 0x7 SLOAD PUSH1 0x1 PUSH1 0x1 PUSH1 0xA0 SHL SUB AND CALLER EQ JUMPDEST PUSH2 0x1B51 JUMPI PUSH1 0x40 MLOAD PUSH3 0x461BCD PUSH1 0xE5 SHL DUP2 MSTORE PUSH1 0x4 ADD PUSH2 0xAEA SWAP1 PUSH2 0x3170 JUMP JUMPDEST PUSH1 0x22 DUP1 SLOAD PUSH4 0xFF000000 NOT DUP2 AND PUSH4 0x1000000 SWAP2 DUP3 SWAP1 DIV PUSH1 0xFF AND ISZERO SWAP1 SWAP2 MUL OR SWAP1 SSTORE JUMP JUMPDEST PUSH1 0x0 SLOAD PUSH1 0x1 PUSH1 0x1 PUSH1 0xA0 SHL SUB AND CALLER EQ DUP1 PUSH2 0x1B95 JUMPI POP PUSH1 0x7 SLOAD PUSH1 0x1 PUSH1 0x1 PUSH1 0xA0 SHL SUB AND CALLER EQ JUMPDEST DUP1 PUSH2 0x1BAA JUMPI POP PUSH1 0x8 SLOAD PUSH1 0x1 PUSH1 0x1 PUSH1 0xA0 SHL SUB AND CALLER EQ JUMPDEST PUSH2 0x1BEF JUMPI PUSH1 0x40 MLOAD PUSH3 0x461BCD PUSH1 0xE5 SHL DUP2 MSTORE PUSH1 0x20 PUSH1 0x4 DUP3 ADD MSTORE PUSH1 0x16 PUSH1 0x24 DUP3 ADD MSTORE PUSH22 0x2737BA1037BBB716103A3635961037B91031BA393639 PUSH1 0x51 SHL PUSH1 0x44 DUP3 ADD MSTORE PUSH1 0x64 ADD PUSH2 0xAEA JUMP JUMPDEST PUSH1 0x11 DUP4 SWAP1 SSTORE PUSH1 0x12 DUP3 SWAP1 SSTORE DUP1 ISZERO PUSH2 0x1C07 JUMPI PUSH2 0x1C07 PUSH2 0x1E60 JUMP JUMPDEST POP POP POP JUMP JUMPDEST PUSH1 0x0 SLOAD PUSH1 0x1 PUSH1 0x1 PUSH1 0xA0 SHL SUB AND CALLER EQ DUP1 PUSH2 0x1C2F JUMPI POP PUSH1 0x7 SLOAD PUSH1 0x1 PUSH1 0x1 PUSH1 0xA0 SHL SUB AND CALLER EQ JUMPDEST PUSH2 0x1C4B JUMPI PUSH1 0x40 MLOAD PUSH3 0x461BCD PUSH1 0xE5 SHL DUP2 MSTORE PUSH1 0x4 ADD PUSH2 0xAEA SWAP1 PUSH2 0x3170 JUMP JUMPDEST PUSH1 0x22 DUP1 SLOAD PUSH3 0xFF0000 NOT DUP2 AND PUSH3 0x10000 SWAP2 DUP3 SWAP1 DIV PUSH1 0xFF AND ISZERO SWAP1 SWAP2 MUL OR SWAP1 SSTORE JUMP JUMPDEST PUSH1 0x22 SLOAD PUSH1 0xFF PUSH2 0x100 SWAP1 SWAP2 DIV AND ISZERO ISZERO PUSH1 0x1 EQ PUSH2 0x1C97 JUMPI PUSH1 0x40 MLOAD PUSH3 0x461BCD PUSH1 0xE5 SHL DUP2 MSTORE PUSH1 0x4 ADD PUSH2 0xAEA SWAP1 PUSH2 0x319F JUMP JUMPDEST PUSH1 0x1 PUSH1 0x1 PUSH1 0xA0 SHL SUB DUP3 AND PUSH1 0x0 SWAP1 DUP2 MSTORE PUSH1 0x20 DUP1 DUP1 MSTORE PUSH1 0x40 DUP1 DUP4 KECCAK256 CALLER DUP5 MSTORE SWAP1 SWAP2 MSTORE SWAP1 KECCAK256 SLOAD PUSH1 0xFF AND DUP1 ISZERO PUSH2 0x1CD7 JUMPI POP CALLER PUSH1 0x0 SWAP1 DUP2 MSTORE PUSH1 0x1F PUSH1 0x20 MSTORE PUSH1 0x40 SWAP1 KECCAK256 SLOAD PUSH1 0xFF AND JUMPDEST PUSH2 0x1D23 JUMPI PUSH1 0x40 MLOAD PUSH3 0x461BCD PUSH1 0xE5 SHL DUP2 MSTORE PUSH1 0x20 PUSH1 0x4 DUP3 ADD MSTORE PUSH1 0x1A PUSH1 0x24 DUP3 ADD MSTORE PUSH32 0x4D69672E20696E76616C6964206F7220756E617070726F766564000000000000 PUSH1 0x44 DUP3 ADD MSTORE PUSH1 0x64 ADD PUSH2 0xAEA JUMP JUMPDEST PUSH2 0x1D2E DUP3 CALLER DUP4 PUSH2 0x25CD JUMP JUMPDEST POP POP JUMP JUMPDEST PUSH1 0x0 SLOAD PUSH1 0x1 PUSH1 0x1 PUSH1 0xA0 SHL SUB AND CALLER EQ DUP1 PUSH2 0x1D55 JUMPI POP PUSH1 0x7 SLOAD PUSH1 0x1 PUSH1 0x1 PUSH1 0xA0 SHL SUB AND CALLER EQ JUMPDEST PUSH2 0x1D71 JUMPI PUSH1 0x40 MLOAD PUSH3 0x461BCD PUSH1 0xE5 SHL DUP2 MSTORE PUSH1 0x4 ADD PUSH2 0xAEA SWAP1 PUSH2 0x3170 JUMP JUMPDEST PUSH1 0x22 SLOAD PUSH1 0xFF AND ISZERO PUSH2 0x1D82 JUMPI PUSH1 0x0 PUSH1 0x12 SSTORE JUMPDEST PUSH1 0x22 DUP1 SLOAD PUSH1 0xFF NOT DUP2 AND PUSH1 0xFF SWAP1 SWAP2 AND ISZERO OR SWAP1 SSTORE JUMP JUMPDEST PUSH1 0x1 PUSH1 0x1 PUSH1 0xA0 SHL SUB DUP2 AND PUSH1 0x0 SWAP1 DUP2 MSTORE PUSH1 0x1F PUSH1 0x20 MSTORE PUSH1 0x40 SWAP1 KECCAK256 SLOAD PUSH1 0xFF AND PUSH2 0x1DFE JUMPI PUSH1 0x40 MLOAD PUSH3 0x461BCD PUSH1 0xE5 SHL DUP2 MSTORE PUSH1 0x20 PUSH1 0x4 DUP3 ADD MSTORE PUSH1 0x18 PUSH1 0x24 DUP3 ADD MSTORE PUSH32 0x496E76616C6964206D69677261746F7220616464726573730000000000000000 PUSH1 0x44 DUP3 ADD MSTORE PUSH1 0x64 ADD PUSH2 0xAEA JUMP JUMPDEST CALLER PUSH1 0x0 SWAP1 DUP2 MSTORE PUSH1 0x20 DUP1 DUP1 MSTORE PUSH1 0x40 DUP1 DUP4 KECCAK256 PUSH1 0x1 PUSH1 0x1 PUSH1 0xA0 SHL SUB SWAP5 SWAP1 SWAP5 AND DUP4 MSTORE SWAP3 SWAP1 MSTORE KECCAK256 DUP1 SLOAD PUSH1 0xFF NOT AND PUSH1 0x1 OR SWAP1 SSTORE JUMP JUMPDEST PUSH1 0x0 PUSH2 0xA76 PUSH8 0xDE0B6B3A7640000 PUSH2 0x9A6 PUSH1 0xE SLOAD PUSH2 0xBE0 DUP7 PUSH1 0x1 PUSH1 0x1 PUSH1 0xA0 SHL SUB AND PUSH1 0x0 SWAP1 DUP2 MSTORE PUSH1 0x1C PUSH1 0x20 MSTORE PUSH1 0x40 SWAP1 KECCAK256 SLOAD SWAP1 JUMP JUMPDEST PUSH1 0x9 SLOAD TIMESTAMP GT ISZERO PUSH2 0x1E74 JUMPI PUSH2 0x1E72 PUSH2 0x2961 JUMP JUMPDEST JUMP JUMPDEST PUSH1 0x0 DUP1 PUSH2 0x1E7F PUSH2 0x1A83 JUMP JUMPDEST PUSH1 0x14 DUP3 SWAP1 SSTORE PUSH1 0x15 DUP2 SWAP1 SSTORE SWAP1 SWAP3 POP SWAP1 POP PUSH2 0x1E96 PUSH2 0x294E JUMP JUMPDEST PUSH1 0xA SSTORE POP POP JUMP JUMPDEST PUSH1 0x0 DUP1 PUSH2 0x1EAA DUP4 DUP6 PUSH2 0x322D JUMP JUMPDEST SWAP1 POP DUP4 DUP2 LT ISZERO PUSH2 0x1EFC JUMPI PUSH1 0x40 MLOAD PUSH3 0x461BCD PUSH1 0xE5 SHL DUP2 MSTORE PUSH1 0x20 PUSH1 0x4 DUP3 ADD MSTORE PUSH1 0x1B PUSH1 0x24 DUP3 ADD MSTORE PUSH32 0x536166654D6174683A206164646974696F6E206F766572666C6F770000000000 PUSH1 0x44 DUP3 ADD MSTORE PUSH1 0x64 ADD PUSH2 0xAEA JUMP JUMPDEST SWAP4 SWAP3 POP POP POP JUMP JUMPDEST PUSH1 0x0 PUSH2 0x1EFC DUP4 DUP4 PUSH1 0x40 MLOAD DUP1 PUSH1 0x40 ADD PUSH1 0x40 MSTORE DUP1 PUSH1 0x1E DUP2 MSTORE PUSH1 0x20 ADD PUSH32 0x536166654D6174683A207375627472616374696F6E206F766572666C6F770000 DUP2 MSTORE POP PUSH2 0x2C3F JUMP JUMPDEST PUSH1 0x0 DUP3 PUSH2 0x1F54 JUMPI POP PUSH1 0x0 PUSH2 0xA76 JUMP JUMPDEST PUSH1 0x0 PUSH2 0x1F60 DUP4 DUP6 PUSH2 0x3245 JUMP JUMPDEST SWAP1 POP DUP3 PUSH2 0x1F6D DUP6 DUP4 PUSH2 0x3264 JUMP JUMPDEST EQ PUSH2 0x1EFC JUMPI PUSH1 0x40 MLOAD PUSH3 0x461BCD PUSH1 0xE5 SHL DUP2 MSTORE PUSH1 0x20 PUSH1 0x4 DUP3 ADD MSTORE PUSH1 0x21 PUSH1 0x24 DUP3 ADD MSTORE PUSH32 0x536166654D6174683A206D756C7469706C69636174696F6E206F766572666C6F PUSH1 0x44 DUP3 ADD MSTORE PUSH1 0x77 PUSH1 0xF8 SHL PUSH1 0x64 DUP3 ADD MSTORE PUSH1 0x84 ADD PUSH2 0xAEA JUMP JUMPDEST PUSH1 0x0 PUSH2 0x1EFC DUP4 DUP4 PUSH1 0x40 MLOAD DUP1 PUSH1 0x40 ADD PUSH1 0x40 MSTORE DUP1 PUSH1 0x1A DUP2 MSTORE PUSH1 0x20 ADD PUSH32 0x536166654D6174683A206469766973696F6E206279207A65726F000000000000 DUP2 MSTORE POP PUSH2 0x2C79 JUMP JUMPDEST DUP5 PUSH1 0x1 PUSH2 0x2013 DUP3 DUP3 PUSH2 0x2CA7 JUMP JUMPDEST PUSH1 0x22 SLOAD PUSH6 0x10000000000 SWAP1 DIV PUSH1 0xFF AND ISZERO DUP1 PUSH2 0x2042 JUMPI POP CALLER PUSH1 0x0 SWAP1 DUP2 MSTORE PUSH1 0x1F PUSH1 0x20 MSTORE PUSH1 0x40 SWAP1 KECCAK256 SLOAD PUSH1 0xFF AND ISZERO ISZERO PUSH1 0x1 EQ JUMPDEST PUSH2 0x208E JUMPI PUSH1 0x40 MLOAD PUSH3 0x461BCD PUSH1 0xE5 SHL DUP2 MSTORE PUSH1 0x20 PUSH1 0x4 DUP3 ADD MSTORE PUSH1 0x1E PUSH1 0x24 DUP3 ADD MSTORE PUSH32 0x5374616B696E6720706175736564206F7220696E206D6967726174696F6E0000 PUSH1 0x44 DUP3 ADD MSTORE PUSH1 0x64 ADD PUSH2 0xAEA JUMP JUMPDEST PUSH1 0x0 DUP6 GT PUSH2 0x20DE JUMPI PUSH1 0x40 MLOAD PUSH3 0x461BCD PUSH1 0xE5 SHL DUP2 MSTORE PUSH1 0x20 PUSH1 0x4 DUP3 ADD MSTORE PUSH1 0x19 PUSH1 0x24 DUP3 ADD MSTORE PUSH32 0x4D757374207374616B65206D6F7265207468616E207A65726F00000000000000 PUSH1 0x44 DUP3 ADD MSTORE PUSH1 0x64 ADD PUSH2 0xAEA JUMP JUMPDEST PUSH1 0x1 PUSH1 0x1 PUSH1 0xA0 SHL SUB DUP8 AND PUSH1 0x0 SWAP1 DUP2 MSTORE PUSH1 0x21 PUSH1 0x20 MSTORE PUSH1 0x40 SWAP1 KECCAK256 SLOAD PUSH1 0xFF AND ISZERO PUSH2 0x2147 JUMPI PUSH1 0x40 MLOAD PUSH3 0x461BCD PUSH1 0xE5 SHL DUP2 MSTORE PUSH1 0x20 PUSH1 0x4 DUP3 ADD MSTORE PUSH1 0x1B PUSH1 0x24 DUP3 ADD MSTORE PUSH32 0x4164647265737320686173206265656E20677265796C69737465640000000000 PUSH1 0x44 DUP3 ADD MSTORE PUSH1 0x64 ADD PUSH2 0xAEA JUMP JUMPDEST PUSH1 0xD SLOAD DUP5 LT ISZERO PUSH2 0x2199 JUMPI PUSH1 0x40 MLOAD PUSH3 0x461BCD PUSH1 0xE5 SHL DUP2 MSTORE PUSH1 0x20 PUSH1 0x4 DUP3 ADD MSTORE PUSH1 0x1A PUSH1 0x24 DUP3 ADD MSTORE PUSH32 0x4D696E696D756D207374616B652074696D65206E6F74206D6574000000000000 PUSH1 0x44 DUP3 ADD MSTORE PUSH1 0x64 ADD PUSH2 0xAEA JUMP JUMPDEST PUSH1 0xC SLOAD DUP5 GT ISZERO PUSH2 0x21EB JUMPI PUSH1 0x40 MLOAD PUSH3 0x461BCD PUSH1 0xE5 SHL DUP2 MSTORE PUSH1 0x20 PUSH1 0x4 DUP3 ADD MSTORE PUSH1 0x1B PUSH1 0x24 DUP3 ADD MSTORE PUSH32 0x547279696E6720746F206C6F636B20666F7220746F6F206C6F6E670000000000 PUSH1 0x44 DUP3 ADD MSTORE PUSH1 0x64 ADD PUSH2 0xAEA JUMP JUMPDEST PUSH1 0x0 PUSH2 0x21F6 DUP6 PUSH2 0xA23 JUMP JUMPDEST PUSH1 0x1 PUSH1 0x1 PUSH1 0xA0 SHL SUB DUP10 AND PUSH1 0x0 SWAP1 DUP2 MSTORE PUSH1 0x1C PUSH1 0x20 SWAP1 DUP2 MSTORE PUSH1 0x40 DUP1 DUP4 KECCAK256 SLOAD SWAP1 MLOAD PUSH12 0xFFFFFFFFFFFFFFFFFFFFFFFF NOT PUSH1 0x60 DUP15 SWAP1 SHL AND SWAP3 DUP2 ADD SWAP3 SWAP1 SWAP3 MSTORE PUSH1 0x34 DUP3 ADD DUP9 SWAP1 MSTORE PUSH1 0x54 DUP3 ADD DUP11 SWAP1 MSTORE PUSH1 0x74 DUP3 ADD MSTORE SWAP2 SWAP3 POP SWAP1 PUSH1 0x94 ADD PUSH1 0x40 DUP1 MLOAD PUSH1 0x1F NOT DUP2 DUP5 SUB ADD DUP2 MSTORE DUP3 DUP3 MSTORE DUP1 MLOAD PUSH1 0x20 SWAP2 DUP3 ADD KECCAK256 PUSH1 0x1 PUSH1 0x1 PUSH1 0xA0 SHL SUB DUP14 AND PUSH1 0x0 SWAP1 DUP2 MSTORE PUSH1 0x1E DUP4 MSTORE DUP4 SWAP1 KECCAK256 PUSH1 0xA0 DUP6 ADD DUP5 MSTORE DUP2 DUP6 MSTORE SWAP2 DUP5 ADD DUP10 SWAP1 MSTORE SWAP2 DUP4 ADD DUP11 SWAP1 MSTORE SWAP1 SWAP3 POP SWAP1 PUSH1 0x60 DUP2 ADD PUSH2 0x229E DUP9 DUP11 PUSH2 0x1E9D JUMP JUMPDEST DUP2 MSTORE PUSH1 0x20 SWAP1 DUP2 ADD DUP6 SWAP1 MSTORE DUP3 SLOAD PUSH1 0x1 DUP2 DUP2 ADD DUP6 SSTORE PUSH1 0x0 SWAP5 DUP6 MSTORE SWAP4 DUP3 SWAP1 KECCAK256 DUP4 MLOAD PUSH1 0x5 SWAP1 SWAP3 MUL ADD SWAP1 DUP2 SSTORE SWAP1 DUP3 ADD MLOAD SWAP3 DUP2 ADD SWAP3 SWAP1 SWAP3 SSTORE PUSH1 0x40 DUP2 ADD MLOAD PUSH1 0x2 DUP4 ADD SSTORE PUSH1 0x60 DUP2 ADD MLOAD PUSH1 0x3 DUP4 ADD SSTORE PUSH1 0x80 ADD MLOAD PUSH1 0x4 SWAP1 SWAP2 ADD SSTORE PUSH1 0x6 SLOAD PUSH2 0x2306 SWAP1 PUSH1 0x1 PUSH1 0x1 PUSH1 0xA0 SHL SUB AND DUP10 ADDRESS DUP11 PUSH2 0x2D96 JUMP JUMPDEST PUSH1 0x1A SLOAD PUSH2 0x2313 SWAP1 DUP9 PUSH2 0x1E9D JUMP JUMPDEST PUSH1 0x1A SSTORE PUSH1 0x1 PUSH1 0x1 PUSH1 0xA0 SHL SUB DUP10 AND PUSH1 0x0 SWAP1 DUP2 MSTORE PUSH1 0x1C PUSH1 0x20 MSTORE PUSH1 0x40 SWAP1 KECCAK256 SLOAD PUSH2 0x2339 SWAP1 DUP9 PUSH2 0x1E9D JUMP JUMPDEST PUSH1 0x1 PUSH1 0x1 PUSH1 0xA0 SHL SUB DUP11 AND PUSH1 0x0 SWAP1 DUP2 MSTORE PUSH1 0x1C PUSH1 0x20 MSTORE PUSH1 0x40 DUP2 KECCAK256 SWAP2 SWAP1 SWAP2 SSTORE PUSH2 0x2360 SWAP1 DUP11 SWAP1 PUSH2 0x2CA7 JUMP JUMPDEST PUSH1 0x40 DUP1 MLOAD DUP9 DUP2 MSTORE PUSH1 0x20 DUP2 ADD DUP9 SWAP1 MSTORE SWAP1 DUP2 ADD DUP3 SWAP1 MSTORE PUSH1 0x1 PUSH1 0x1 PUSH1 0xA0 SHL SUB DUP10 DUP2 AND PUSH1 0x60 DUP4 ADD MSTORE DUP11 AND SWAP1 PUSH32 0xF400E72E69EF4402819DFC57EEDDC66F5EB69BF405E0E8098B1946EC1AC14A22 SWAP1 PUSH1 0x80 ADD PUSH1 0x40 MLOAD DUP1 SWAP2 SUB SWAP1 LOG2 POP POP POP POP POP POP POP POP POP JUMP JUMPDEST PUSH1 0x0 DUP1 DUP4 PUSH1 0x1 PUSH2 0x23CF DUP3 DUP3 PUSH2 0x2CA7 JUMP JUMPDEST PUSH1 0x1 PUSH1 0x1 PUSH1 0xA0 SHL SUB DUP7 AND PUSH1 0x0 SWAP1 DUP2 MSTORE PUSH1 0x18 PUSH1 0x20 SWAP1 DUP2 MSTORE PUSH1 0x40 DUP1 DUP4 KECCAK256 SLOAD PUSH1 0x19 SWAP1 SWAP3 MSTORE SWAP1 SWAP2 KECCAK256 SLOAD SWAP1 SWAP5 POP SWAP3 POP DUP4 ISZERO PUSH2 0x24E0 JUMPI PUSH1 0x1 PUSH1 0x1 PUSH1 0xA0 SHL SUB DUP7 DUP2 AND PUSH1 0x0 SWAP1 DUP2 MSTORE PUSH1 0x18 PUSH1 0x20 MSTORE PUSH1 0x40 DUP1 DUP3 KECCAK256 SWAP2 SWAP1 SWAP2 SSTORE PUSH1 0x4 DUP1 SLOAD SWAP2 MLOAD PUSH4 0xA9059CBB PUSH1 0xE0 SHL DUP2 MSTORE DUP9 DUP5 AND SWAP2 DUP2 ADD SWAP2 SWAP1 SWAP2 MSTORE PUSH1 0x24 DUP2 ADD DUP8 SWAP1 MSTORE SWAP2 AND SWAP1 PUSH4 0xA9059CBB SWAP1 PUSH1 0x44 ADD PUSH1 0x20 PUSH1 0x40 MLOAD DUP1 DUP4 SUB DUP2 PUSH1 0x0 DUP8 GAS CALL ISZERO DUP1 ISZERO PUSH2 0x2469 JUMPI RETURNDATASIZE PUSH1 0x0 DUP1 RETURNDATACOPY RETURNDATASIZE PUSH1 0x0 REVERT JUMPDEST POP POP POP POP PUSH1 0x40 MLOAD RETURNDATASIZE PUSH1 0x1F NOT PUSH1 0x1F DUP3 ADD AND DUP3 ADD DUP1 PUSH1 0x40 MSTORE POP DUP2 ADD SWAP1 PUSH2 0x248D SWAP2 SWAP1 PUSH2 0x31C9 JUMP JUMPDEST POP PUSH1 0x4 SLOAD PUSH1 0x40 DUP1 MLOAD DUP7 DUP2 MSTORE PUSH1 0x1 PUSH1 0x1 PUSH1 0xA0 SHL SUB SWAP3 DUP4 AND PUSH1 0x20 DUP3 ADD MSTORE DUP8 DUP4 AND DUP2 DUP4 ADD MSTORE SWAP1 MLOAD SWAP2 DUP9 AND SWAP2 PUSH32 0x1D2F2CA53AF5D2F333BD32FDD45F9C52AD8EBE31414F7792912077FCB3876DFF SWAP2 DUP2 SWAP1 SUB PUSH1 0x60 ADD SWAP1 LOG2 JUMPDEST DUP3 ISZERO PUSH2 0x25C4 JUMPI PUSH1 0x1 PUSH1 0x1 PUSH1 0xA0 SHL SUB DUP7 DUP2 AND PUSH1 0x0 SWAP1 DUP2 MSTORE PUSH1 0x19 PUSH1 0x20 MSTORE PUSH1 0x40 DUP1 DUP3 KECCAK256 SWAP2 SWAP1 SWAP2 SSTORE PUSH1 0x5 SLOAD SWAP1 MLOAD PUSH4 0xA9059CBB PUSH1 0xE0 SHL DUP2 MSTORE DUP8 DUP4 AND PUSH1 0x4 DUP3 ADD MSTORE PUSH1 0x24 DUP2 ADD DUP7 SWAP1 MSTORE SWAP2 AND SWAP1 PUSH4 0xA9059CBB SWAP1 PUSH1 0x44 ADD PUSH1 0x20 PUSH1 0x40 MLOAD DUP1 DUP4 SUB DUP2 PUSH1 0x0 DUP8 GAS CALL ISZERO DUP1 ISZERO PUSH2 0x254D JUMPI RETURNDATASIZE PUSH1 0x0 DUP1 RETURNDATACOPY RETURNDATASIZE PUSH1 0x0 REVERT JUMPDEST POP POP POP POP PUSH1 0x40 MLOAD RETURNDATASIZE PUSH1 0x1F NOT PUSH1 0x1F DUP3 ADD AND DUP3 ADD DUP1 PUSH1 0x40 MSTORE POP DUP2 ADD SWAP1 PUSH2 0x2571 SWAP2 SWAP1 PUSH2 0x31C9 JUMP JUMPDEST POP PUSH1 0x5 SLOAD PUSH1 0x40 DUP1 MLOAD DUP6 DUP2 MSTORE PUSH1 0x1 PUSH1 0x1 PUSH1 0xA0 SHL SUB SWAP3 DUP4 AND PUSH1 0x20 DUP3 ADD MSTORE DUP8 DUP4 AND DUP2 DUP4 ADD MSTORE SWAP1 MLOAD SWAP2 DUP9 AND SWAP2 PUSH32 0x1D2F2CA53AF5D2F333BD32FDD45F9C52AD8EBE31414F7792912077FCB3876DFF SWAP2 DUP2 SWAP1 SUB PUSH1 0x60 ADD SWAP1 LOG2 JUMPDEST POP POP SWAP3 POP SWAP3 SWAP1 POP JUMP JUMPDEST PUSH2 0x25D7 DUP4 DUP4 PUSH2 0x23BF JUMP JUMPDEST POP POP PUSH2 0x260E PUSH1 0x40 MLOAD DUP1 PUSH1 0xA0 ADD PUSH1 0x40 MSTORE DUP1 PUSH1 0x0 DUP1 NOT AND DUP2 MSTORE PUSH1 0x20 ADD PUSH1 0x0 DUP2 MSTORE PUSH1 0x20 ADD PUSH1 0x0 DUP2 MSTORE PUSH1 0x20 ADD PUSH1 0x0 DUP2 MSTORE PUSH1 0x20 ADD PUSH1 0x0 DUP2 MSTORE POP SWAP1 JUMP JUMPDEST PUSH1 0x0 PUSH1 0x40 DUP3 ADD DUP2 SWAP1 MSTORE DUP1 JUMPDEST PUSH1 0x1 PUSH1 0x1 PUSH1 0xA0 SHL SUB DUP7 AND PUSH1 0x0 SWAP1 DUP2 MSTORE PUSH1 0x1E PUSH1 0x20 MSTORE PUSH1 0x40 SWAP1 KECCAK256 SLOAD DUP2 LT ISZERO PUSH2 0x270D JUMPI PUSH1 0x1 PUSH1 0x1 PUSH1 0xA0 SHL SUB DUP7 AND PUSH1 0x0 SWAP1 DUP2 MSTORE PUSH1 0x1E PUSH1 0x20 MSTORE PUSH1 0x40 SWAP1 KECCAK256 DUP1 SLOAD DUP3 SWAP1 DUP2 LT PUSH2 0x2663 JUMPI PUSH2 0x2663 PUSH2 0x31E6 JUMP JUMPDEST SWAP1 PUSH1 0x0 MSTORE PUSH1 0x20 PUSH1 0x0 KECCAK256 SWAP1 PUSH1 0x5 MUL ADD PUSH1 0x0 ADD SLOAD DUP5 EQ ISZERO PUSH2 0x26FB JUMPI PUSH1 0x1 PUSH1 0x1 PUSH1 0xA0 SHL SUB DUP7 AND PUSH1 0x0 SWAP1 DUP2 MSTORE PUSH1 0x1E PUSH1 0x20 MSTORE PUSH1 0x40 SWAP1 KECCAK256 DUP1 SLOAD DUP3 SWAP1 DUP2 LT PUSH2 0x26A6 JUMPI PUSH2 0x26A6 PUSH2 0x31E6 JUMP JUMPDEST SWAP1 PUSH1 0x0 MSTORE PUSH1 0x20 PUSH1 0x0 KECCAK256 SWAP1 PUSH1 0x5 MUL ADD PUSH1 0x40 MLOAD DUP1 PUSH1 0xA0 ADD PUSH1 0x40 MSTORE SWAP1 DUP2 PUSH1 0x0 DUP3 ADD SLOAD DUP2 MSTORE PUSH1 0x20 ADD PUSH1 0x1 DUP3 ADD SLOAD DUP2 MSTORE PUSH1 0x20 ADD PUSH1 0x2 DUP3 ADD SLOAD DUP2 MSTORE PUSH1 0x20 ADD PUSH1 0x3 DUP3 ADD SLOAD DUP2 MSTORE PUSH1 0x20 ADD PUSH1 0x4 DUP3 ADD SLOAD DUP2 MSTORE POP POP SWAP3 POP DUP1 SWAP2 POP PUSH2 0x270D JUMP JUMPDEST DUP1 PUSH2 0x2705 DUP2 PUSH2 0x3212 JUMP JUMPDEST SWAP2 POP POP PUSH2 0x2619 JUMP JUMPDEST POP DUP2 MLOAD DUP4 EQ PUSH2 0x2750 JUMPI PUSH1 0x40 MLOAD PUSH3 0x461BCD PUSH1 0xE5 SHL DUP2 MSTORE PUSH1 0x20 PUSH1 0x4 DUP3 ADD MSTORE PUSH1 0xF PUSH1 0x24 DUP3 ADD MSTORE PUSH15 0x14DD185AD9481B9BDD08199BDD5B99 PUSH1 0x8A SHL PUSH1 0x44 DUP3 ADD MSTORE PUSH1 0x64 ADD PUSH2 0xAEA JUMP JUMPDEST DUP2 PUSH1 0x60 ADD MLOAD TIMESTAMP LT ISZERO DUP1 PUSH2 0x2770 JUMPI POP PUSH1 0x22 SLOAD PUSH3 0x10000 SWAP1 DIV PUSH1 0xFF AND ISZERO ISZERO PUSH1 0x1 EQ JUMPDEST DUP1 PUSH2 0x278F JUMPI POP CALLER PUSH1 0x0 SWAP1 DUP2 MSTORE PUSH1 0x1F PUSH1 0x20 MSTORE PUSH1 0x40 SWAP1 KECCAK256 SLOAD PUSH1 0xFF AND ISZERO ISZERO PUSH1 0x1 EQ JUMPDEST PUSH2 0x27D4 JUMPI PUSH1 0x40 MLOAD PUSH3 0x461BCD PUSH1 0xE5 SHL DUP2 MSTORE PUSH1 0x20 PUSH1 0x4 DUP3 ADD MSTORE PUSH1 0x16 PUSH1 0x24 DUP3 ADD MSTORE PUSH22 0x5374616B65206973207374696C6C206C6F636B656421 PUSH1 0x50 SHL PUSH1 0x44 DUP3 ADD MSTORE PUSH1 0x64 ADD PUSH2 0xAEA JUMP JUMPDEST PUSH1 0x40 DUP3 ADD MLOAD DUP1 ISZERO PUSH2 0x2946 JUMPI PUSH1 0x1A SLOAD PUSH2 0x27EC SWAP1 DUP3 PUSH2 0x1F03 JUMP JUMPDEST PUSH1 0x1A SSTORE PUSH1 0x1 PUSH1 0x1 PUSH1 0xA0 SHL SUB DUP7 AND PUSH1 0x0 SWAP1 DUP2 MSTORE PUSH1 0x1C PUSH1 0x20 MSTORE PUSH1 0x40 SWAP1 KECCAK256 SLOAD PUSH2 0x2812 SWAP1 DUP3 PUSH2 0x1F03 JUMP JUMPDEST PUSH1 0x1 PUSH1 0x1 PUSH1 0xA0 SHL SUB DUP8 AND PUSH1 0x0 SWAP1 DUP2 MSTORE PUSH1 0x1C PUSH1 0x20 SWAP1 DUP2 MSTORE PUSH1 0x40 DUP1 DUP4 KECCAK256 SWAP4 SWAP1 SWAP4 SSTORE PUSH1 0x1E SWAP1 MSTORE KECCAK256 DUP1 SLOAD DUP4 SWAP1 DUP2 LT PUSH2 0x2848 JUMPI PUSH2 0x2848 PUSH2 0x31E6 JUMP JUMPDEST PUSH1 0x0 SWAP2 DUP3 MSTORE PUSH1 0x20 DUP3 KECCAK256 PUSH1 0x5 SWAP1 SWAP2 MUL ADD DUP2 DUP2 SSTORE PUSH1 0x1 DUP2 ADD DUP3 SWAP1 SSTORE PUSH1 0x2 DUP2 ADD DUP3 SWAP1 SSTORE PUSH1 0x3 DUP2 ADD DUP3 SWAP1 SSTORE PUSH1 0x4 ADD DUP2 SWAP1 SSTORE PUSH2 0x2880 SWAP1 DUP8 SWAP1 PUSH2 0x2CA7 JUMP JUMPDEST PUSH1 0x6 SLOAD PUSH1 0x40 MLOAD PUSH4 0xA9059CBB PUSH1 0xE0 SHL DUP2 MSTORE PUSH1 0x1 PUSH1 0x1 PUSH1 0xA0 SHL SUB DUP8 DUP2 AND PUSH1 0x4 DUP4 ADD MSTORE PUSH1 0x24 DUP3 ADD DUP5 SWAP1 MSTORE SWAP1 SWAP2 AND SWAP1 PUSH4 0xA9059CBB SWAP1 PUSH1 0x44 ADD PUSH1 0x20 PUSH1 0x40 MLOAD DUP1 DUP4 SUB DUP2 PUSH1 0x0 DUP8 GAS CALL ISZERO DUP1 ISZERO PUSH2 0x28D3 JUMPI RETURNDATASIZE PUSH1 0x0 DUP1 RETURNDATACOPY RETURNDATASIZE PUSH1 0x0 REVERT JUMPDEST POP POP POP POP PUSH1 0x40 MLOAD RETURNDATASIZE PUSH1 0x1F NOT PUSH1 0x1F DUP3 ADD AND DUP3 ADD DUP1 PUSH1 0x40 MSTORE POP DUP2 ADD SWAP1 PUSH2 0x28F7 SWAP2 SWAP1 PUSH2 0x31C9 JUMP JUMPDEST POP PUSH1 0x40 DUP1 MLOAD DUP3 DUP2 MSTORE PUSH1 0x20 DUP2 ADD DUP7 SWAP1 MSTORE PUSH1 0x1 PUSH1 0x1 PUSH1 0xA0 SHL SUB DUP8 DUP2 AND DUP3 DUP5 ADD MSTORE SWAP2 MLOAD SWAP2 DUP9 AND SWAP2 PUSH32 0x1D9308F6B22A2754A1C622BB30889E8F8F956C83E524D039E9D65D5F052EB908 SWAP2 DUP2 SWAP1 SUB PUSH1 0x60 ADD SWAP1 LOG2 JUMPDEST POP POP POP POP POP POP JUMP JUMPDEST PUSH1 0x0 PUSH2 0x295C TIMESTAMP PUSH1 0x9 SLOAD PUSH2 0x2EBE JUMP JUMPDEST SWAP1 POP SWAP1 JUMP JUMPDEST PUSH1 0x9 SLOAD TIMESTAMP GT PUSH2 0x29B2 JUMPI PUSH1 0x40 MLOAD PUSH3 0x461BCD PUSH1 0xE5 SHL DUP2 MSTORE PUSH1 0x20 PUSH1 0x4 DUP3 ADD MSTORE PUSH1 0x1B PUSH1 0x24 DUP3 ADD MSTORE PUSH32 0x506572696F6420686173206E6F74206578706972656420796574210000000000 PUSH1 0x44 DUP3 ADD MSTORE PUSH1 0x64 ADD PUSH2 0xAEA JUMP JUMPDEST PUSH1 0x0 PUSH1 0x13 SLOAD PUSH2 0x29CC PUSH1 0x9 SLOAD TIMESTAMP PUSH2 0x1F03 SWAP1 SWAP2 SWAP1 PUSH4 0xFFFFFFFF AND JUMP JUMPDEST PUSH2 0x29D6 SWAP2 SWAP1 PUSH2 0x3264 JUMP JUMPDEST PUSH1 0x4 DUP1 SLOAD PUSH1 0x40 MLOAD PUSH4 0x70A08231 PUSH1 0xE0 SHL DUP2 MSTORE ADDRESS SWAP3 DUP2 ADD SWAP3 SWAP1 SWAP3 MSTORE SWAP2 SWAP3 POP PUSH1 0x0 SWAP2 PUSH1 0x1 PUSH1 0x1 PUSH1 0xA0 SHL SUB AND SWAP1 PUSH4 0x70A08231 SWAP1 PUSH1 0x24 ADD PUSH1 0x20 PUSH1 0x40 MLOAD DUP1 DUP4 SUB DUP2 DUP7 GAS STATICCALL ISZERO DUP1 ISZERO PUSH2 0x2A25 JUMPI RETURNDATASIZE PUSH1 0x0 DUP1 RETURNDATACOPY RETURNDATASIZE PUSH1 0x0 REVERT JUMPDEST POP POP POP POP PUSH1 0x40 MLOAD RETURNDATASIZE PUSH1 0x1F NOT PUSH1 0x1F DUP3 ADD AND DUP3 ADD DUP1 PUSH1 0x40 MSTORE POP DUP2 ADD SWAP1 PUSH2 0x2A49 SWAP2 SWAP1 PUSH2 0x3120 JUMP JUMPDEST PUSH1 0x5 SLOAD PUSH1 0x40 MLOAD PUSH4 0x70A08231 PUSH1 0xE0 SHL DUP2 MSTORE ADDRESS PUSH1 0x4 DUP3 ADD MSTORE SWAP2 SWAP3 POP PUSH1 0x0 SWAP2 PUSH1 0x1 PUSH1 0x1 PUSH1 0xA0 SHL SUB SWAP1 SWAP2 AND SWAP1 PUSH4 0x70A08231 SWAP1 PUSH1 0x24 ADD PUSH1 0x20 PUSH1 0x40 MLOAD DUP1 DUP4 SUB DUP2 DUP7 GAS STATICCALL ISZERO DUP1 ISZERO PUSH2 0x2A97 JUMPI RETURNDATASIZE PUSH1 0x0 DUP1 RETURNDATACOPY RETURNDATASIZE PUSH1 0x0 REVERT JUMPDEST POP POP POP POP PUSH1 0x40 MLOAD RETURNDATASIZE PUSH1 0x1F NOT PUSH1 0x1F DUP3 ADD AND DUP3 ADD DUP1 PUSH1 0x40 MSTORE POP DUP2 ADD SWAP1 PUSH2 0x2ABB SWAP2 SWAP1 PUSH2 0x3120 JUMP JUMPDEST SWAP1 POP DUP2 PUSH2 0x2ADB PUSH2 0x2ACC DUP6 PUSH1 0x1 PUSH2 0x322D JUMP JUMPDEST PUSH1 0x13 SLOAD PUSH1 0x11 SLOAD PUSH2 0xBE0 SWAP2 PUSH2 0x1F45 JUMP JUMPDEST GT ISZERO PUSH2 0x2B29 JUMPI PUSH1 0x40 MLOAD PUSH3 0x461BCD PUSH1 0xE5 SHL DUP2 MSTORE PUSH1 0x20 PUSH1 0x4 DUP3 ADD MSTORE PUSH1 0x17 PUSH1 0x24 DUP3 ADD MSTORE PUSH32 0x4E6F7420656E6F75676820433320617661696C61626C65000000000000000000 PUSH1 0x44 DUP3 ADD MSTORE PUSH1 0x64 ADD PUSH2 0xAEA JUMP JUMPDEST PUSH1 0x22 SLOAD PUSH1 0xFF AND ISZERO PUSH2 0x2BB1 JUMPI DUP1 PUSH2 0x2B52 PUSH2 0x2B43 DUP6 PUSH1 0x1 PUSH2 0x322D JUMP JUMPDEST PUSH1 0x13 SLOAD PUSH1 0x12 SLOAD PUSH2 0xBE0 SWAP2 PUSH2 0x1F45 JUMP JUMPDEST GT ISZERO PUSH2 0x2BB1 JUMPI PUSH1 0x40 MLOAD PUSH3 0x461BCD PUSH1 0xE5 SHL DUP2 MSTORE PUSH1 0x20 PUSH1 0x4 DUP3 ADD MSTORE PUSH1 0x28 PUSH1 0x24 DUP3 ADD MSTORE PUSH32 0x4E6F7420656E6F75676820746F6B656E3120617661696C61626C6520666F7220 PUSH1 0x44 DUP3 ADD MSTORE PUSH8 0x7265776172647321 PUSH1 0xC0 SHL PUSH1 0x64 DUP3 ADD MSTORE PUSH1 0x84 ADD PUSH2 0xAEA JUMP JUMPDEST PUSH1 0x13 SLOAD PUSH2 0x2BD0 SWAP1 PUSH2 0x2BC7 SWAP1 PUSH2 0xBE0 DUP7 PUSH1 0x1 PUSH2 0x1E9D JUMP JUMPDEST PUSH1 0x9 SLOAD SWAP1 PUSH2 0x1E9D JUMP JUMPDEST PUSH1 0x9 SSTORE PUSH1 0x0 DUP1 PUSH2 0x2BDE PUSH2 0x1A83 JUMP JUMPDEST PUSH1 0x14 DUP3 SWAP1 SSTORE PUSH1 0x15 DUP2 SWAP1 SSTORE SWAP1 SWAP3 POP SWAP1 POP PUSH2 0x2BF5 PUSH2 0x294E JUMP JUMPDEST PUSH1 0xA SSTORE PUSH1 0x6 SLOAD PUSH1 0x40 MLOAD PUSH1 0x1 PUSH1 0x1 PUSH1 0xA0 SHL SUB SWAP1 SWAP2 AND DUP2 MSTORE PUSH32 0x6F2B3B3AAF1881D69A5D40565500F93EA73DF36E7B6A29BF48B21479A9237FE9 SWAP1 PUSH1 0x20 ADD PUSH1 0x40 MLOAD DUP1 SWAP2 SUB SWAP1 LOG1 POP POP POP POP POP JUMP JUMPDEST PUSH1 0x0 DUP2 DUP5 DUP5 GT ISZERO PUSH2 0x2C63 JUMPI PUSH1 0x40 MLOAD PUSH3 0x461BCD PUSH1 0xE5 SHL DUP2 MSTORE PUSH1 0x4 ADD PUSH2 0xAEA SWAP2 SWAP1 PUSH2 0x32B2 JUMP JUMPDEST POP PUSH1 0x0 PUSH2 0x2C70 DUP5 DUP7 PUSH2 0x32E5 JUMP JUMPDEST SWAP6 SWAP5 POP POP POP POP POP JUMP JUMPDEST PUSH1 0x0 DUP2 DUP4 PUSH2 0x2C9A JUMPI PUSH1 0x40 MLOAD PUSH3 0x461BCD PUSH1 0xE5 SHL DUP2 MSTORE PUSH1 0x4 ADD PUSH2 0xAEA SWAP2 SWAP1 PUSH2 0x32B2 JUMP JUMPDEST POP PUSH1 0x0 PUSH2 0x2C70 DUP5 DUP7 PUSH2 0x3264 JUMP JUMPDEST DUP1 ISZERO PUSH2 0x2CB5 JUMPI PUSH2 0x2CB5 PUSH2 0x1E60 JUMP JUMPDEST PUSH1 0x1 PUSH1 0x1 PUSH1 0xA0 SHL SUB DUP3 AND ISZERO PUSH2 0x1D2E JUMPI PUSH1 0x0 DUP1 PUSH1 0x0 PUSH2 0x2CD2 DUP6 PUSH2 0x148E JUMP JUMPDEST SWAP3 POP SWAP3 POP SWAP3 POP PUSH2 0x2CE1 DUP6 PUSH2 0x2ED4 JUMP JUMPDEST PUSH1 0x1 PUSH1 0x1 PUSH1 0xA0 SHL SUB DUP6 AND PUSH1 0x0 SWAP1 DUP2 MSTORE PUSH1 0x10 PUSH1 0x20 MSTORE PUSH1 0x40 SWAP1 KECCAK256 DUP3 SWAP1 SSTORE DUP3 DUP2 LT PUSH2 0x2D4B JUMPI PUSH1 0x0 PUSH2 0x2D0F DUP3 DUP6 PUSH2 0x1F03 JUMP JUMPDEST PUSH1 0x1B SLOAD SWAP1 SWAP2 POP PUSH2 0x2D1F SWAP1 DUP3 PUSH2 0x1E9D JUMP JUMPDEST PUSH1 0x1B SSTORE PUSH2 0x2D2C DUP5 DUP3 PUSH2 0x1E9D JUMP JUMPDEST PUSH1 0x1 PUSH1 0x1 PUSH1 0xA0 SHL SUB DUP8 AND PUSH1 0x0 SWAP1 DUP2 MSTORE PUSH1 0x1D PUSH1 0x20 MSTORE PUSH1 0x40 SWAP1 KECCAK256 SSTORE POP PUSH2 0x2D8F JUMP JUMPDEST PUSH1 0x0 PUSH2 0x2D57 DUP5 DUP4 PUSH2 0x1F03 JUMP JUMPDEST PUSH1 0x1B SLOAD SWAP1 SWAP2 POP PUSH2 0x2D67 SWAP1 DUP3 PUSH2 0x1F03 JUMP JUMPDEST PUSH1 0x1B SSTORE PUSH2 0x2D74 DUP5 DUP3 PUSH2 0x1F03 JUMP JUMPDEST PUSH1 0x1 PUSH1 0x1 PUSH1 0xA0 SHL SUB DUP8 AND PUSH1 0x0 SWAP1 DUP2 MSTORE PUSH1 0x1D PUSH1 0x20 MSTORE PUSH1 0x40 SWAP1 KECCAK256 SSTORE POP JUMPDEST POP POP POP POP POP JUMP JUMPDEST PUSH1 0x40 DUP1 MLOAD PUSH1 0x1 PUSH1 0x1 PUSH1 0xA0 SHL SUB DUP6 DUP2 AND PUSH1 0x24 DUP4 ADD MSTORE DUP5 DUP2 AND PUSH1 0x44 DUP4 ADD MSTORE PUSH1 0x64 DUP1 DUP4 ADD DUP6 SWAP1 MSTORE DUP4 MLOAD DUP1 DUP5 SUB SWAP1 SWAP2 ADD DUP2 MSTORE PUSH1 0x84 SWAP1 SWAP3 ADD DUP4 MSTORE PUSH1 0x20 DUP3 ADD DUP1 MLOAD PUSH1 0x1 PUSH1 0x1 PUSH1 0xE0 SHL SUB AND PUSH4 0x23B872DD PUSH1 0xE0 SHL OR SWAP1 MSTORE SWAP2 MLOAD PUSH1 0x0 SWAP3 DUP4 SWAP3 SWAP1 DUP9 AND SWAP2 PUSH2 0x2DFA SWAP2 SWAP1 PUSH2 0x32FC JUMP JUMPDEST PUSH1 0x0 PUSH1 0x40 MLOAD DUP1 DUP4 SUB DUP2 PUSH1 0x0 DUP7 GAS CALL SWAP2 POP POP RETURNDATASIZE DUP1 PUSH1 0x0 DUP2 EQ PUSH2 0x2E37 JUMPI PUSH1 0x40 MLOAD SWAP2 POP PUSH1 0x1F NOT PUSH1 0x3F RETURNDATASIZE ADD AND DUP3 ADD PUSH1 0x40 MSTORE RETURNDATASIZE DUP3 MSTORE RETURNDATASIZE PUSH1 0x0 PUSH1 0x20 DUP5 ADD RETURNDATACOPY PUSH2 0x2E3C JUMP JUMPDEST PUSH1 0x60 SWAP2 POP JUMPDEST POP SWAP2 POP SWAP2 POP DUP2 DUP1 ISZERO PUSH2 0x2E66 JUMPI POP DUP1 MLOAD ISZERO DUP1 PUSH2 0x2E66 JUMPI POP DUP1 DUP1 PUSH1 0x20 ADD SWAP1 MLOAD DUP2 ADD SWAP1 PUSH2 0x2E66 SWAP2 SWAP1 PUSH2 0x31C9 JUMP JUMPDEST PUSH2 0x2946 JUMPI PUSH1 0x40 MLOAD PUSH3 0x461BCD PUSH1 0xE5 SHL DUP2 MSTORE PUSH1 0x20 PUSH1 0x4 DUP3 ADD MSTORE PUSH1 0x24 DUP1 DUP3 ADD MSTORE PUSH32 0x5472616E7366657248656C7065723A205452414E534645525F46524F4D5F4641 PUSH1 0x44 DUP3 ADD MSTORE PUSH4 0x12531151 PUSH1 0xE2 SHL PUSH1 0x64 DUP3 ADD MSTORE PUSH1 0x84 ADD PUSH2 0xAEA JUMP JUMPDEST PUSH1 0x0 DUP2 DUP4 LT PUSH2 0x2ECD JUMPI DUP2 PUSH2 0x1EFC JUMP JUMPDEST POP SWAP1 SWAP2 SWAP1 POP JUMP JUMPDEST PUSH1 0x1 PUSH1 0x1 PUSH1 0xA0 SHL SUB DUP2 AND ISZERO PUSH2 0x2F34 JUMPI PUSH1 0x0 DUP1 PUSH2 0x2EEF DUP4 PUSH2 0x903 JUMP JUMPDEST PUSH1 0x1 PUSH1 0x1 PUSH1 0xA0 SHL SUB DUP6 AND PUSH1 0x0 SWAP1 DUP2 MSTORE PUSH1 0x18 PUSH1 0x20 SWAP1 DUP2 MSTORE PUSH1 0x40 DUP1 DUP4 KECCAK256 SWAP5 SWAP1 SWAP5 SSTORE PUSH1 0x19 DUP2 MSTORE DUP4 DUP3 KECCAK256 SWAP3 SWAP1 SWAP3 SSTORE PUSH1 0x14 SLOAD PUSH1 0x16 DUP4 MSTORE DUP4 DUP3 KECCAK256 SSTORE PUSH1 0x15 SLOAD PUSH1 0x17 SWAP1 SWAP3 MSTORE SWAP2 SWAP1 SWAP2 KECCAK256 SSTORE POP POP JUMPDEST POP JUMP JUMPDEST DUP1 CALLDATALOAD PUSH1 0x1 PUSH1 0x1 PUSH1 0xA0 SHL SUB DUP2 AND DUP2 EQ PUSH2 0x2F4E JUMPI PUSH1 0x0 DUP1 REVERT JUMPDEST SWAP2 SWAP1 POP JUMP JUMPDEST PUSH1 0x0 PUSH1 0x20 DUP3 DUP5 SUB SLT ISZERO PUSH2 0x2F65 JUMPI PUSH1 0x0 DUP1 REVERT JUMPDEST PUSH2 0x1EFC DUP3 PUSH2 0x2F37 JUMP JUMPDEST PUSH1 0x0 PUSH1 0x20 DUP3 DUP5 SUB SLT ISZERO PUSH2 0x2F80 JUMPI PUSH1 0x0 DUP1 REVERT JUMPDEST POP CALLDATALOAD SWAP2 SWAP1 POP JUMP JUMPDEST PUSH1 0x0 DUP1 PUSH1 0x40 DUP4 DUP6 SUB SLT ISZERO PUSH2 0x2F9A JUMPI PUSH1 0x0 DUP1 REVERT JUMPDEST POP POP DUP1 CALLDATALOAD SWAP3 PUSH1 0x20 SWAP1 SWAP2 ADD CALLDATALOAD SWAP2 POP JUMP JUMPDEST PUSH1 0x20 DUP1 DUP3 MSTORE DUP3 MLOAD DUP3 DUP3 ADD DUP2 SWAP1 MSTORE PUSH1 0x0 SWAP2 SWAP1 PUSH1 0x40 SWAP1 DUP2 DUP6 ADD SWAP1 DUP7 DUP5 ADD DUP6 JUMPDEST DUP3 DUP2 LT ISZERO PUSH2 0x300A JUMPI DUP2 MLOAD DUP1 MLOAD DUP6 MSTORE DUP7 DUP2 ADD MLOAD DUP8 DUP7 ADD MSTORE DUP6 DUP2 ADD MLOAD DUP7 DUP7 ADD MSTORE PUSH1 0x60 DUP1 DUP3 ADD MLOAD SWAP1 DUP7 ADD MSTORE PUSH1 0x80 SWAP1 DUP2 ADD MLOAD SWAP1 DUP6 ADD MSTORE PUSH1 0xA0 SWAP1 SWAP4 ADD SWAP3 SWAP1 DUP6 ADD SWAP1 PUSH1 0x1 ADD PUSH2 0x2FC6 JUMP JUMPDEST POP SWAP2 SWAP8 SWAP7 POP POP POP POP POP POP POP JUMP JUMPDEST PUSH1 0x0 DUP1 PUSH1 0x0 DUP1 PUSH1 0x80 DUP6 DUP8 SUB SLT ISZERO PUSH2 0x302D JUMPI PUSH1 0x0 DUP1 REVERT JUMPDEST PUSH2 0x3036 DUP6 PUSH2 0x2F37 JUMP JUMPDEST SWAP7 PUSH1 0x20 DUP7 ADD CALLDATALOAD SWAP7 POP PUSH1 0x40 DUP7 ADD CALLDATALOAD SWAP6 PUSH1 0x60 ADD CALLDATALOAD SWAP5 POP SWAP3 POP POP POP JUMP JUMPDEST PUSH1 0x0 DUP1 PUSH1 0x0 PUSH1 0x60 DUP5 DUP7 SUB SLT ISZERO PUSH2 0x3065 JUMPI PUSH1 0x0 DUP1 REVERT JUMPDEST POP POP DUP2 CALLDATALOAD SWAP4 PUSH1 0x20 DUP4 ADD CALLDATALOAD SWAP4 POP PUSH1 0x40 SWAP1 SWAP3 ADD CALLDATALOAD SWAP2 SWAP1 POP JUMP JUMPDEST PUSH1 0x0 DUP1 PUSH1 0x40 DUP4 DUP6 SUB SLT ISZERO PUSH2 0x308F JUMPI PUSH1 0x0 DUP1 REVERT JUMPDEST PUSH2 0x3098 DUP4 PUSH2 0x2F37 JUMP JUMPDEST SWAP5 PUSH1 0x20 SWAP4 SWAP1 SWAP4 ADD CALLDATALOAD SWAP4 POP POP POP JUMP JUMPDEST PUSH1 0x0 DUP1 PUSH1 0x40 DUP4 DUP6 SUB SLT ISZERO PUSH2 0x30B9 JUMPI PUSH1 0x0 DUP1 REVERT JUMPDEST PUSH2 0x30C2 DUP4 PUSH2 0x2F37 JUMP JUMPDEST SWAP2 POP PUSH2 0x30D0 PUSH1 0x20 DUP5 ADD PUSH2 0x2F37 JUMP JUMPDEST SWAP1 POP SWAP3 POP SWAP3 SWAP1 POP JUMP JUMPDEST DUP1 ISZERO ISZERO DUP2 EQ PUSH2 0x2F34 JUMPI PUSH1 0x0 DUP1 REVERT JUMPDEST PUSH1 0x0 DUP1 PUSH1 0x0 PUSH1 0x60 DUP5 DUP7 SUB SLT ISZERO PUSH2 0x30FC JUMPI PUSH1 0x0 DUP1 REVERT JUMPDEST DUP4 CALLDATALOAD SWAP3 POP PUSH1 0x20 DUP5 ADD CALLDATALOAD SWAP2 POP PUSH1 0x40 DUP5 ADD CALLDATALOAD PUSH2 0x3115 DUP2 PUSH2 0x30D9 JUMP JUMPDEST DUP1 SWAP2 POP POP SWAP3 POP SWAP3 POP SWAP3 JUMP JUMPDEST PUSH1 0x0 PUSH1 0x20 DUP3 DUP5 SUB SLT ISZERO PUSH2 0x3132 JUMPI PUSH1 0x0 DUP1 REVERT JUMPDEST POP MLOAD SWAP2 SWAP1 POP JUMP JUMPDEST PUSH1 0x20 DUP1 DUP3 MSTORE PUSH1 0x1F SWAP1 DUP3 ADD MSTORE PUSH32 0x5265656E7472616E637947756172643A207265656E7472616E742063616C6C00 PUSH1 0x40 DUP3 ADD MSTORE PUSH1 0x60 ADD SWAP1 JUMP JUMPDEST PUSH1 0x20 DUP1 DUP3 MSTORE PUSH1 0x15 SWAP1 DUP3 ADD MSTORE PUSH21 0x4E6F74206F776E6572206F722074696D656C6F636B PUSH1 0x58 SHL PUSH1 0x40 DUP3 ADD MSTORE PUSH1 0x60 ADD SWAP1 JUMP JUMPDEST PUSH1 0x20 DUP1 DUP3 MSTORE PUSH1 0x10 SWAP1 DUP3 ADD MSTORE PUSH16 0x2737BA1034B71036B4B3B930BA34B7B7 PUSH1 0x81 SHL PUSH1 0x40 DUP3 ADD MSTORE PUSH1 0x60 ADD SWAP1 JUMP JUMPDEST PUSH1 0x0 PUSH1 0x20 DUP3 DUP5 SUB SLT ISZERO PUSH2 0x31DB JUMPI PUSH1 0x0 DUP1 REVERT JUMPDEST DUP2 MLOAD PUSH2 0x1EFC DUP2 PUSH2 0x30D9 JUMP JUMPDEST PUSH4 0x4E487B71 PUSH1 0xE0 SHL PUSH1 0x0 MSTORE PUSH1 0x32 PUSH1 0x4 MSTORE PUSH1 0x24 PUSH1 0x0 REVERT JUMPDEST PUSH4 0x4E487B71 PUSH1 0xE0 SHL PUSH1 0x0 MSTORE PUSH1 0x11 PUSH1 0x4 MSTORE PUSH1 0x24 PUSH1 0x0 REVERT JUMPDEST PUSH1 0x0 PUSH1 0x0 NOT DUP3 EQ ISZERO PUSH2 0x3226 JUMPI PUSH2 0x3226 PUSH2 0x31FC JUMP JUMPDEST POP PUSH1 0x1 ADD SWAP1 JUMP JUMPDEST PUSH1 0x0 DUP3 NOT DUP3 GT ISZERO PUSH2 0x3240 JUMPI PUSH2 0x3240 PUSH2 0x31FC JUMP JUMPDEST POP ADD SWAP1 JUMP JUMPDEST PUSH1 0x0 DUP2 PUSH1 0x0 NOT DIV DUP4 GT DUP3 ISZERO ISZERO AND ISZERO PUSH2 0x325F JUMPI PUSH2 0x325F PUSH2 0x31FC JUMP JUMPDEST POP MUL SWAP1 JUMP JUMPDEST PUSH1 0x0 DUP3 PUSH2 0x3281 JUMPI PUSH4 0x4E487B71 PUSH1 0xE0 SHL PUSH1 0x0 MSTORE PUSH1 0x12 PUSH1 0x4 MSTORE PUSH1 0x24 PUSH1 0x0 REVERT JUMPDEST POP DIV SWAP1 JUMP JUMPDEST PUSH1 0x0 JUMPDEST DUP4 DUP2 LT ISZERO PUSH2 0x32A1 JUMPI DUP2 DUP2 ADD MLOAD DUP4 DUP3 ADD MSTORE PUSH1 0x20 ADD PUSH2 0x3289 JUMP JUMPDEST DUP4 DUP2 GT ISZERO PUSH2 0xECA JUMPI POP POP PUSH1 0x0 SWAP2 ADD MSTORE JUMP JUMPDEST PUSH1 0x20 DUP2 MSTORE PUSH1 0x0 DUP3 MLOAD DUP1 PUSH1 0x20 DUP5 ADD MSTORE PUSH2 0x32D1 DUP2 PUSH1 0x40 DUP6 ADD PUSH1 0x20 DUP8 ADD PUSH2 0x3286 JUMP JUMPDEST PUSH1 0x1F ADD PUSH1 0x1F NOT AND SWAP2 SWAP1 SWAP2 ADD PUSH1 0x40 ADD SWAP3 SWAP2 POP POP JUMP JUMPDEST PUSH1 0x0 DUP3 DUP3 LT ISZERO PUSH2 0x32F7 JUMPI PUSH2 0x32F7 PUSH2 0x31FC JUMP JUMPDEST POP SUB SWAP1 JUMP JUMPDEST PUSH1 0x0 DUP3 MLOAD PUSH2 0x330E DUP2 DUP5 PUSH1 0x20 DUP8 ADD PUSH2 0x3286 JUMP JUMPDEST SWAP2 SWAP1 SWAP2 ADD SWAP3 SWAP2 POP POP JUMP INVALID LOG2 PUSH5 0x6970667358 0x22 SLT KECCAK256 LOG4 CALLVALUE STOP JUMPDEST 0xB5 PUSH27 0xC2F0376F2950C15661953E443E4D2062A783E823AD2D4539AFCA64 PUSH20 0x6F6C634300080B00330000000000000000000000 "
		},
		"gasEstimates": {
			"creation": {
				"codeDepositCost": "2626800",
				"executionCost": "infinite",
				"totalCost": "infinite"
			},
			"external": {
				"acceptOwnership()": "56393",
				"addMigrator(address)": "28963",
				"calcCurCombinedWeight(address)": "infinite",
				"combinedWeightOf(address)": "2627",
				"controller_address()": "2405",
				"earned(address)": "infinite",
				"getReward()": "infinite",
				"getRewardForDuration()": "infinite",
				"greylist(address)": "2666",
				"greylistAddress(address)": "29001",
				"lastUpdateTime()": "2362",
				"lockMultiplier(uint256)": "infinite",
				"lock_max_multiplier()": "2428",
				"lock_time_for_max_multiplier()": "2363",
				"lock_time_min()": "2429",
				"lockedLiquidityOf(address)": "2627",
				"lockedStakesOf(address)": "infinite",
				"migrationsOn()": "2409",
				"migrator_stakeLocked_for(address,uint256,uint256,uint256)": "infinite",
				"migrator_withdraw_locked(address,bytes32)": "infinite",
				"minVeC3ForMaxBoost(address)": "infinite",
				"nominateNewOwner(address)": "27901",
				"nominatedOwner()": "2427",
				"owner()": "2492",
				"periodFinish()": "2362",
				"recoverERC20(address,uint256)": "infinite",
				"removeMigrator(address)": "31224",
				"rewardPerToken()": "infinite",
				"rewardRate0()": "2408",
				"rewardRate1()": "2385",
				"rewards0(address)": "2653",
				"rewards1(address)": "2609",
				"rewardsCollectionPaused()": "2389",
				"rewardsDuration()": "2407",
				"setController(address)": "28925",
				"setLockedStakeTimeForMinAndMaxMultiplier(uint256,uint256)": "51057",
				"setMultipliers(uint256,uint256,uint256)": "78435",
				"setRewardRates(uint256,uint256,bool)": "infinite",
				"setRewardsDuration(uint256)": "34167",
				"setTimelock(address)": "28968",
				"stakeLocked(uint256,uint256)": "infinite",
				"stakerAllowMigrator(address)": "27027",
				"stakerDisallowMigrator(address)": "24734",
				"staker_allowed_migrators(address,address)": "infinite",
				"stakesUnlocked()": "2434",
				"stakingPaused()": "2411",
				"sync()": "infinite",
				"timelock_address()": "2449",
				"toggleMigrations()": "28802",
				"toggleRewardsCollection()": "28779",
				"toggleStaking()": "28824",
				"toggleToken1Rewards()": "35889",
				"toggleWithdrawals()": "28758",
				"token1_rewards_on()": "2422",
				"totalCombinedWeight()": "2426",
				"totalLiquidityLocked()": "2359",
				"unlockStakes()": "28779",
				"userRewardPerTokenPaid0(address)": "2633",
				"userRewardPerTokenPaid1(address)": "2629",
				"userStakedToken(address)": "2628",
				"valid_migrators(address)": "2642",
				"veC3Multiplier(address)": "infinite",
				"vec3_max_multiplier()": "2408",
				"vec3_per_c3_for_max_boost()": "2427",
				"withdrawLocked(bytes32)": "infinite",
				"withdrawalsPaused()": "2432"
			},
			"internal": {
				"_getReward(address,address)": "infinite",
				"_stakeLocked(address,address,uint256,uint256,uint256)": "infinite",
				"_syncEarned(address)": "infinite",
				"_updateRewardAndBalance(address,bool)": "infinite",
				"_withdrawLocked(address,address,bytes32)": "infinite",
				"lastTimeRewardApplicable()": "2201",
				"retroCatchUp()": "infinite"
			}
		},
		"methodIdentifiers": {
			"acceptOwnership()": "79ba5097",
			"addMigrator(address)": "9c5303eb",
			"calcCurCombinedWeight(address)": "8bad86a7",
			"combinedWeightOf(address)": "36f89af2",
			"controller_address()": "67feda3e",
			"earned(address)": "008cc262",
			"getReward()": "3d18b912",
			"getRewardForDuration()": "1c1f78eb",
			"greylist(address)": "31ca208c",
			"greylistAddress(address)": "941d9f65",
			"lastUpdateTime()": "c8f33c91",
			"lockMultiplier(uint256)": "0d7bac4f",
			"lock_max_multiplier()": "cdc82e80",
			"lock_time_for_max_multiplier()": "b94c4dcb",
			"lock_time_min()": "6e27cef9",
			"lockedLiquidityOf(address)": "d9f96e8d",
			"lockedStakesOf(address)": "1e090f01",
			"migrationsOn()": "fce6fd13",
			"migrator_stakeLocked_for(address,uint256,uint256,uint256)": "28ef934e",
			"migrator_withdraw_locked(address,bytes32)": "eb3c209e",
			"minVeC3ForMaxBoost(address)": "f9706f44",
			"nominateNewOwner(address)": "1627540c",
			"nominatedOwner()": "53a47bb7",
			"owner()": "8da5cb5b",
			"periodFinish()": "ebe2b12b",
			"recoverERC20(address,uint256)": "8980f11f",
			"removeMigrator(address)": "1b3e870a",
			"rewardPerToken()": "cd3daf9d",
			"rewardRate0()": "2ca1a895",
			"rewardRate1()": "a1ec508a",
			"rewards0(address)": "c126d1aa",
			"rewards1(address)": "6a231b03",
			"rewardsCollectionPaused()": "323331ca",
			"rewardsDuration()": "386a9525",
			"setController(address)": "92eefe9b",
			"setLockedStakeTimeForMinAndMaxMultiplier(uint256,uint256)": "af00f4e2",
			"setMultipliers(uint256,uint256,uint256)": "6ce46bc3",
			"setRewardRates(uint256,uint256,bool)": "de9853ad",
			"setRewardsDuration(uint256)": "cc1a378f",
			"setTimelock(address)": "bdacb303",
			"stakeLocked(uint256,uint256)": "17b18c89",
			"stakerAllowMigrator(address)": "f12f1447",
			"stakerDisallowMigrator(address)": "52732bc8",
			"staker_allowed_migrators(address,address)": "9b8c15a8",
			"stakesUnlocked()": "9637927f",
			"stakingPaused()": "bbb781cc",
			"sync()": "fff6cae9",
			"timelock_address()": "dc6663c7",
			"toggleMigrations()": "a2217bc5",
			"toggleRewardsCollection()": "7b31c19a",
			"toggleStaking()": "3b8105b3",
			"toggleToken1Rewards()": "ed48f6f7",
			"toggleWithdrawals()": "d239f003",
			"token1_rewards_on()": "64350467",
			"totalCombinedWeight()": "64f2c060",
			"totalLiquidityLocked()": "e01f62bf",
			"unlockStakes()": "e1ba95d2",
			"userRewardPerTokenPaid0(address)": "144e8034",
			"userRewardPerTokenPaid1(address)": "fe271f5f",
			"userStakedToken(address)": "4703dace",
			"valid_migrators(address)": "ee89e02f",
			"veC3Multiplier(address)": "170feb76",
			"vec3_max_multiplier()": "51654f7f",
			"vec3_per_c3_for_max_boost()": "ff0063fc",
			"withdrawLocked(bytes32)": "51e3fc17",
			"withdrawalsPaused()": "e9f2838e"
		}
	},
	"abi": [
		{
			"inputs": [
				{
					"internalType": "address",
					"name": "_owner",
					"type": "address"
				},
				{
					"internalType": "address",
					"name": "_rewardsToken0",
					"type": "address"
				},
				{
					"internalType": "address",
					"name": "_rewardsToken1",
					"type": "address"
				},
				{
					"internalType": "address",
					"name": "_stakingToken",
					"type": "address"
				},
				{
					"internalType": "address",
					"name": "_c3_address",
					"type": "address"
				},
				{
					"internalType": "address",
					"name": "_timelock_address",
					"type": "address"
				},
				{
					"internalType": "address",
					"name": "_veC3_address",
					"type": "address"
				}
			],
			"stateMutability": "nonpayable",
			"type": "constructor"
		},
		{
			"anonymous": false,
			"inputs": [
				{
					"indexed": false,
					"internalType": "uint256",
					"name": "multiplier",
					"type": "uint256"
				}
			],
			"name": "LockedStakeMaxMultiplierUpdated",
			"type": "event"
		},
		{
			"anonymous": false,
			"inputs": [
				{
					"indexed": false,
					"internalType": "uint256",
					"name": "secs",
					"type": "uint256"
				}
			],
			"name": "LockedStakeMinTime",
			"type": "event"
		},
		{
			"anonymous": false,
			"inputs": [
				{
					"indexed": false,
					"internalType": "uint256",
					"name": "secs",
					"type": "uint256"
				}
			],
			"name": "LockedStakeTimeForMaxMultiplier",
			"type": "event"
		},
		{
			"anonymous": false,
			"inputs": [
				{
					"indexed": false,
					"internalType": "uint256",
					"name": "multiplier",
					"type": "uint256"
				}
			],
			"name": "MaxVeC3Multiplier",
			"type": "event"
		},
		{
			"anonymous": false,
			"inputs": [
				{
					"indexed": false,
					"internalType": "address",
					"name": "oldOwner",
					"type": "address"
				},
				{
					"indexed": false,
					"internalType": "address",
					"name": "newOwner",
					"type": "address"
				}
			],
			"name": "OwnerChanged",
			"type": "event"
		},
		{
			"anonymous": false,
			"inputs": [
				{
					"indexed": false,
					"internalType": "address",
					"name": "newOwner",
					"type": "address"
				}
			],
			"name": "OwnerNominated",
			"type": "event"
		},
		{
			"anonymous": false,
			"inputs": [
				{
					"indexed": false,
					"internalType": "address",
					"name": "token",
					"type": "address"
				},
				{
					"indexed": false,
					"internalType": "uint256",
					"name": "amount",
					"type": "uint256"
				}
			],
			"name": "Recovered",
			"type": "event"
		},
		{
			"anonymous": false,
			"inputs": [
				{
					"indexed": true,
					"internalType": "address",
					"name": "user",
					"type": "address"
				},
				{
					"indexed": false,
					"internalType": "uint256",
					"name": "reward",
					"type": "uint256"
				},
				{
					"indexed": false,
					"internalType": "address",
					"name": "token_address",
					"type": "address"
				},
				{
					"indexed": false,
					"internalType": "address",
					"name": "destination_address",
					"type": "address"
				}
			],
			"name": "RewardPaid",
			"type": "event"
		},
		{
			"anonymous": false,
			"inputs": [
				{
					"indexed": false,
					"internalType": "uint256",
					"name": "newDuration",
					"type": "uint256"
				}
			],
			"name": "RewardsDurationUpdated",
			"type": "event"
		},
		{
			"anonymous": false,
			"inputs": [
				{
					"indexed": false,
					"internalType": "address",
					"name": "token",
					"type": "address"
				}
			],
			"name": "RewardsPeriodRenewed",
			"type": "event"
		},
		{
			"anonymous": false,
			"inputs": [
				{
					"indexed": true,
					"internalType": "address",
					"name": "user",
					"type": "address"
				},
				{
					"indexed": false,
					"internalType": "uint256",
					"name": "amount",
					"type": "uint256"
				},
				{
					"indexed": false,
					"internalType": "uint256",
					"name": "secs",
					"type": "uint256"
				},
				{
					"indexed": false,
					"internalType": "bytes32",
					"name": "kek_id",
					"type": "bytes32"
				},
				{
					"indexed": false,
					"internalType": "address",
					"name": "source_address",
					"type": "address"
				}
			],
			"name": "StakeLocked",
			"type": "event"
		},
		{
			"anonymous": false,
			"inputs": [
				{
					"indexed": true,
					"internalType": "address",
					"name": "user",
					"type": "address"
				},
				{
					"indexed": false,
					"internalType": "uint256",
					"name": "amount",
					"type": "uint256"
				},
				{
					"indexed": false,
					"internalType": "bytes32",
					"name": "kek_id",
					"type": "bytes32"
				},
				{
					"indexed": false,
					"internalType": "address",
					"name": "destination_address",
					"type": "address"
				}
			],
			"name": "WithdrawLocked",
			"type": "event"
		},
		{
			"anonymous": false,
			"inputs": [
				{
					"indexed": false,
					"internalType": "uint256",
					"name": "scale_factor",
					"type": "uint256"
				}
			],
			"name": "veC3PerC3ForMaxBoostUpdated",
			"type": "event"
		},
		{
			"inputs": [],
			"name": "acceptOwnership",
			"outputs": [],
			"stateMutability": "nonpayable",
			"type": "function"
		},
		{
			"inputs": [
				{
					"internalType": "address",
					"name": "migrator_address",
					"type": "address"
				}
			],
			"name": "addMigrator",
			"outputs": [],
			"stateMutability": "nonpayable",
			"type": "function"
		},
		{
			"inputs": [
				{
					"internalType": "address",
					"name": "account",
					"type": "address"
				}
			],
			"name": "calcCurCombinedWeight",
			"outputs": [
				{
					"internalType": "uint256",
					"name": "old_combined_weight",
					"type": "uint256"
				},
				{
					"internalType": "uint256",
					"name": "new_vec3_multiplier",
					"type": "uint256"
				},
				{
					"internalType": "uint256",
					"name": "new_combined_weight",
					"type": "uint256"
				}
			],
			"stateMutability": "view",
			"type": "function"
		},
		{
			"inputs": [
				{
					"internalType": "address",
					"name": "account",
					"type": "address"
				}
			],
			"name": "combinedWeightOf",
			"outputs": [
				{
					"internalType": "uint256",
					"name": "",
					"type": "uint256"
				}
			],
			"stateMutability": "view",
			"type": "function"
		},
		{
			"inputs": [],
			"name": "controller_address",
			"outputs": [
				{
					"internalType": "address",
					"name": "",
					"type": "address"
				}
			],
			"stateMutability": "view",
			"type": "function"
		},
		{
			"inputs": [
				{
					"internalType": "address",
					"name": "account",
					"type": "address"
				}
			],
			"name": "earned",
			"outputs": [
				{
					"internalType": "uint256",
					"name": "",
					"type": "uint256"
				},
				{
					"internalType": "uint256",
					"name": "",
					"type": "uint256"
				}
			],
			"stateMutability": "view",
			"type": "function"
		},
		{
			"inputs": [],
			"name": "getReward",
			"outputs": [
				{
					"internalType": "uint256",
					"name": "",
					"type": "uint256"
				},
				{
					"internalType": "uint256",
					"name": "",
					"type": "uint256"
				}
			],
			"stateMutability": "nonpayable",
			"type": "function"
		},
		{
			"inputs": [],
			"name": "getRewardForDuration",
			"outputs": [
				{
					"internalType": "uint256",
					"name": "",
					"type": "uint256"
				},
				{
					"internalType": "uint256",
					"name": "",
					"type": "uint256"
				}
			],
			"stateMutability": "view",
			"type": "function"
		},
		{
			"inputs": [
				{
					"internalType": "address",
					"name": "",
					"type": "address"
				}
			],
			"name": "greylist",
			"outputs": [
				{
					"internalType": "bool",
					"name": "",
					"type": "bool"
				}
			],
			"stateMutability": "view",
			"type": "function"
		},
		{
			"inputs": [
				{
					"internalType": "address",
					"name": "_address",
					"type": "address"
				}
			],
			"name": "greylistAddress",
			"outputs": [],
			"stateMutability": "nonpayable",
			"type": "function"
		},
		{
			"inputs": [],
			"name": "lastUpdateTime",
			"outputs": [
				{
					"internalType": "uint256",
					"name": "",
					"type": "uint256"
				}
			],
			"stateMutability": "view",
			"type": "function"
		},
		{
			"inputs": [
				{
					"internalType": "uint256",
					"name": "secs",
					"type": "uint256"
				}
			],
			"name": "lockMultiplier",
			"outputs": [
				{
					"internalType": "uint256",
					"name": "",
					"type": "uint256"
				}
			],
			"stateMutability": "view",
			"type": "function"
		},
		{
			"inputs": [],
			"name": "lock_max_multiplier",
			"outputs": [
				{
					"internalType": "uint256",
					"name": "",
					"type": "uint256"
				}
			],
			"stateMutability": "view",
			"type": "function"
		},
		{
			"inputs": [],
			"name": "lock_time_for_max_multiplier",
			"outputs": [
				{
					"internalType": "uint256",
					"name": "",
					"type": "uint256"
				}
			],
			"stateMutability": "view",
			"type": "function"
		},
		{
			"inputs": [],
			"name": "lock_time_min",
			"outputs": [
				{
					"internalType": "uint256",
					"name": "",
					"type": "uint256"
				}
			],
			"stateMutability": "view",
			"type": "function"
		},
		{
			"inputs": [
				{
					"internalType": "address",
					"name": "account",
					"type": "address"
				}
			],
			"name": "lockedLiquidityOf",
			"outputs": [
				{
					"internalType": "uint256",
					"name": "",
					"type": "uint256"
				}
			],
			"stateMutability": "view",
			"type": "function"
		},
		{
			"inputs": [
				{
					"internalType": "address",
					"name": "account",
					"type": "address"
				}
			],
			"name": "lockedStakesOf",
			"outputs": [
				{
					"components": [
						{
							"internalType": "bytes32",
							"name": "kek_id",
							"type": "bytes32"
						},
						{
							"internalType": "uint256",
							"name": "start_timestamp",
							"type": "uint256"
						},
						{
							"internalType": "uint256",
							"name": "liquidity",
							"type": "uint256"
						},
						{
							"internalType": "uint256",
							"name": "ending_timestamp",
							"type": "uint256"
						},
						{
							"internalType": "uint256",
							"name": "lock_multiplier",
							"type": "uint256"
						}
					],
					"internalType": "struct C3StakingRewardsDualV5_nonLP.LockedStake[]",
					"name": "",
					"type": "tuple[]"
				}
			],
			"stateMutability": "view",
			"type": "function"
		},
		{
			"inputs": [],
			"name": "migrationsOn",
			"outputs": [
				{
					"internalType": "bool",
					"name": "",
					"type": "bool"
				}
			],
			"stateMutability": "view",
			"type": "function"
		},
		{
			"inputs": [
				{
					"internalType": "address",
					"name": "staker_address",
					"type": "address"
				},
				{
					"internalType": "uint256",
					"name": "amount",
					"type": "uint256"
				},
				{
					"internalType": "uint256",
					"name": "secs",
					"type": "uint256"
				},
				{
					"internalType": "uint256",
					"name": "start_timestamp",
					"type": "uint256"
				}
			],
			"name": "migrator_stakeLocked_for",
			"outputs": [],
			"stateMutability": "nonpayable",
			"type": "function"
		},
		{
			"inputs": [
				{
					"internalType": "address",
					"name": "staker_address",
					"type": "address"
				},
				{
					"internalType": "bytes32",
					"name": "kek_id",
					"type": "bytes32"
				}
			],
			"name": "migrator_withdraw_locked",
			"outputs": [],
			"stateMutability": "nonpayable",
			"type": "function"
		},
		{
			"inputs": [
				{
					"internalType": "address",
					"name": "account",
					"type": "address"
				}
			],
			"name": "minVeC3ForMaxBoost",
			"outputs": [
				{
					"internalType": "uint256",
					"name": "",
					"type": "uint256"
				}
			],
			"stateMutability": "view",
			"type": "function"
		},
		{
			"inputs": [
				{
					"internalType": "address",
					"name": "_owner",
					"type": "address"
				}
			],
			"name": "nominateNewOwner",
			"outputs": [],
			"stateMutability": "nonpayable",
			"type": "function"
		},
		{
			"inputs": [],
			"name": "nominatedOwner",
			"outputs": [
				{
					"internalType": "address",
					"name": "",
					"type": "address"
				}
			],
			"stateMutability": "view",
			"type": "function"
		},
		{
			"inputs": [],
			"name": "owner",
			"outputs": [
				{
					"internalType": "address",
					"name": "",
					"type": "address"
				}
			],
			"stateMutability": "view",
			"type": "function"
		},
		{
			"inputs": [],
			"name": "periodFinish",
			"outputs": [
				{
					"internalType": "uint256",
					"name": "",
					"type": "uint256"
				}
			],
			"stateMutability": "view",
			"type": "function"
		},
		{
			"inputs": [
				{
					"internalType": "address",
					"name": "tokenAddress",
					"type": "address"
				},
				{
					"internalType": "uint256",
					"name": "tokenAmount",
					"type": "uint256"
				}
			],
			"name": "recoverERC20",
			"outputs": [],
			"stateMutability": "nonpayable",
			"type": "function"
		},
		{
			"inputs": [
				{
					"internalType": "address",
					"name": "migrator_address",
					"type": "address"
				}
			],
			"name": "removeMigrator",
			"outputs": [],
			"stateMutability": "nonpayable",
			"type": "function"
		},
		{
			"inputs": [],
			"name": "rewardPerToken",
			"outputs": [
				{
					"internalType": "uint256",
					"name": "",
					"type": "uint256"
				},
				{
					"internalType": "uint256",
					"name": "",
					"type": "uint256"
				}
			],
			"stateMutability": "view",
			"type": "function"
		},
		{
			"inputs": [],
			"name": "rewardRate0",
			"outputs": [
				{
					"internalType": "uint256",
					"name": "",
					"type": "uint256"
				}
			],
			"stateMutability": "view",
			"type": "function"
		},
		{
			"inputs": [],
			"name": "rewardRate1",
			"outputs": [
				{
					"internalType": "uint256",
					"name": "",
					"type": "uint256"
				}
			],
			"stateMutability": "view",
			"type": "function"
		},
		{
			"inputs": [
				{
					"internalType": "address",
					"name": "",
					"type": "address"
				}
			],
			"name": "rewards0",
			"outputs": [
				{
					"internalType": "uint256",
					"name": "",
					"type": "uint256"
				}
			],
			"stateMutability": "view",
			"type": "function"
		},
		{
			"inputs": [
				{
					"internalType": "address",
					"name": "",
					"type": "address"
				}
			],
			"name": "rewards1",
			"outputs": [
				{
					"internalType": "uint256",
					"name": "",
					"type": "uint256"
				}
			],
			"stateMutability": "view",
			"type": "function"
		},
		{
			"inputs": [],
			"name": "rewardsCollectionPaused",
			"outputs": [
				{
					"internalType": "bool",
					"name": "",
					"type": "bool"
				}
			],
			"stateMutability": "view",
			"type": "function"
		},
		{
			"inputs": [],
			"name": "rewardsDuration",
			"outputs": [
				{
					"internalType": "uint256",
					"name": "",
					"type": "uint256"
				}
			],
			"stateMutability": "view",
			"type": "function"
		},
		{
			"inputs": [
				{
					"internalType": "address",
					"name": "_controller_address",
					"type": "address"
				}
			],
			"name": "setController",
			"outputs": [],
			"stateMutability": "nonpayable",
			"type": "function"
		},
		{
			"inputs": [
				{
					"internalType": "uint256",
					"name": "_lock_time_for_max_multiplier",
					"type": "uint256"
				},
				{
					"internalType": "uint256",
					"name": "_lock_time_min",
					"type": "uint256"
				}
			],
			"name": "setLockedStakeTimeForMinAndMaxMultiplier",
			"outputs": [],
			"stateMutability": "nonpayable",
			"type": "function"
		},
		{
			"inputs": [
				{
					"internalType": "uint256",
					"name": "_lock_max_multiplier",
					"type": "uint256"
				},
				{
					"internalType": "uint256",
					"name": "_vec3_max_multiplier",
					"type": "uint256"
				},
				{
					"internalType": "uint256",
					"name": "_vec3_per_c3_for_max_boost",
					"type": "uint256"
				}
			],
			"name": "setMultipliers",
			"outputs": [],
			"stateMutability": "nonpayable",
			"type": "function"
		},
		{
			"inputs": [
				{
					"internalType": "uint256",
					"name": "_new_rate0",
					"type": "uint256"
				},
				{
					"internalType": "uint256",
					"name": "_new_rate1",
					"type": "uint256"
				},
				{
					"internalType": "bool",
					"name": "sync_too",
					"type": "bool"
				}
			],
			"name": "setRewardRates",
			"outputs": [],
			"stateMutability": "nonpayable",
			"type": "function"
		},
		{
			"inputs": [
				{
					"internalType": "uint256",
					"name": "_rewardsDuration",
					"type": "uint256"
				}
			],
			"name": "setRewardsDuration",
			"outputs": [],
			"stateMutability": "nonpayable",
			"type": "function"
		},
		{
			"inputs": [
				{
					"internalType": "address",
					"name": "_new_timelock",
					"type": "address"
				}
			],
			"name": "setTimelock",
			"outputs": [],
			"stateMutability": "nonpayable",
			"type": "function"
		},
		{
			"inputs": [
				{
					"internalType": "uint256",
					"name": "liquidity",
					"type": "uint256"
				},
				{
					"internalType": "uint256",
					"name": "secs",
					"type": "uint256"
				}
			],
			"name": "stakeLocked",
			"outputs": [],
			"stateMutability": "nonpayable",
			"type": "function"
		},
		{
			"inputs": [
				{
					"internalType": "address",
					"name": "migrator_address",
					"type": "address"
				}
			],
			"name": "stakerAllowMigrator",
			"outputs": [],
			"stateMutability": "nonpayable",
			"type": "function"
		},
		{
			"inputs": [
				{
					"internalType": "address",
					"name": "migrator_address",
					"type": "address"
				}
			],
			"name": "stakerDisallowMigrator",
			"outputs": [],
			"stateMutability": "nonpayable",
			"type": "function"
		},
		{
			"inputs": [
				{
					"internalType": "address",
					"name": "",
					"type": "address"
				},
				{
					"internalType": "address",
					"name": "",
					"type": "address"
				}
			],
			"name": "staker_allowed_migrators",
			"outputs": [
				{
					"internalType": "bool",
					"name": "",
					"type": "bool"
				}
			],
			"stateMutability": "view",
			"type": "function"
		},
		{
			"inputs": [],
			"name": "stakesUnlocked",
			"outputs": [
				{
					"internalType": "bool",
					"name": "",
					"type": "bool"
				}
			],
			"stateMutability": "view",
			"type": "function"
		},
		{
			"inputs": [],
			"name": "stakingPaused",
			"outputs": [
				{
					"internalType": "bool",
					"name": "",
					"type": "bool"
				}
			],
			"stateMutability": "view",
			"type": "function"
		},
		{
			"inputs": [],
			"name": "sync",
			"outputs": [],
			"stateMutability": "nonpayable",
			"type": "function"
		},
		{
			"inputs": [],
			"name": "timelock_address",
			"outputs": [
				{
					"internalType": "address",
					"name": "",
					"type": "address"
				}
			],
			"stateMutability": "view",
			"type": "function"
		},
		{
			"inputs": [],
			"name": "toggleMigrations",
			"outputs": [],
			"stateMutability": "nonpayable",
			"type": "function"
		},
		{
			"inputs": [],
			"name": "toggleRewardsCollection",
			"outputs": [],
			"stateMutability": "nonpayable",
			"type": "function"
		},
		{
			"inputs": [],
			"name": "toggleStaking",
			"outputs": [],
			"stateMutability": "nonpayable",
			"type": "function"
		},
		{
			"inputs": [],
			"name": "toggleToken1Rewards",
			"outputs": [],
			"stateMutability": "nonpayable",
			"type": "function"
		},
		{
			"inputs": [],
			"name": "toggleWithdrawals",
			"outputs": [],
			"stateMutability": "nonpayable",
			"type": "function"
		},
		{
			"inputs": [],
			"name": "token1_rewards_on",
			"outputs": [
				{
					"internalType": "bool",
					"name": "",
					"type": "bool"
				}
			],
			"stateMutability": "view",
			"type": "function"
		},
		{
			"inputs": [],
			"name": "totalCombinedWeight",
			"outputs": [
				{
					"internalType": "uint256",
					"name": "",
					"type": "uint256"
				}
			],
			"stateMutability": "view",
			"type": "function"
		},
		{
			"inputs": [],
			"name": "totalLiquidityLocked",
			"outputs": [
				{
					"internalType": "uint256",
					"name": "",
					"type": "uint256"
				}
			],
			"stateMutability": "view",
			"type": "function"
		},
		{
			"inputs": [],
			"name": "unlockStakes",
			"outputs": [],
			"stateMutability": "nonpayable",
			"type": "function"
		},
		{
			"inputs": [
				{
					"internalType": "address",
					"name": "",
					"type": "address"
				}
			],
			"name": "userRewardPerTokenPaid0",
			"outputs": [
				{
					"internalType": "uint256",
					"name": "",
					"type": "uint256"
				}
			],
			"stateMutability": "view",
			"type": "function"
		},
		{
			"inputs": [
				{
					"internalType": "address",
					"name": "",
					"type": "address"
				}
			],
			"name": "userRewardPerTokenPaid1",
			"outputs": [
				{
					"internalType": "uint256",
					"name": "",
					"type": "uint256"
				}
			],
			"stateMutability": "view",
			"type": "function"
		},
		{
			"inputs": [
				{
					"internalType": "address",
					"name": "account",
					"type": "address"
				}
			],
			"name": "userStakedToken",
			"outputs": [
				{
					"internalType": "uint256",
					"name": "",
					"type": "uint256"
				}
			],
			"stateMutability": "view",
			"type": "function"
		},
		{
			"inputs": [
				{
					"internalType": "address",
					"name": "",
					"type": "address"
				}
			],
			"name": "valid_migrators",
			"outputs": [
				{
					"internalType": "bool",
					"name": "",
					"type": "bool"
				}
			],
			"stateMutability": "view",
			"type": "function"
		},
		{
			"inputs": [
				{
					"internalType": "address",
					"name": "account",
					"type": "address"
				}
			],
			"name": "veC3Multiplier",
			"outputs": [
				{
					"internalType": "uint256",
					"name": "",
					"type": "uint256"
				}
			],
			"stateMutability": "view",
			"type": "function"
		},
		{
			"inputs": [],
			"name": "vec3_max_multiplier",
			"outputs": [
				{
					"internalType": "uint256",
					"name": "",
					"type": "uint256"
				}
			],
			"stateMutability": "view",
			"type": "function"
		},
		{
			"inputs": [],
			"name": "vec3_per_c3_for_max_boost",
			"outputs": [
				{
					"internalType": "uint256",
					"name": "",
					"type": "uint256"
				}
			],
			"stateMutability": "view",
			"type": "function"
		},
		{
			"inputs": [
				{
					"internalType": "bytes32",
					"name": "kek_id",
					"type": "bytes32"
				}
			],
			"name": "withdrawLocked",
			"outputs": [],
			"stateMutability": "nonpayable",
			"type": "function"
		},
		{
			"inputs": [],
			"name": "withdrawalsPaused",
			"outputs": [
				{
					"internalType": "bool",
					"name": "",
					"type": "bool"
				}
			],
			"stateMutability": "view",
			"type": "function"
		}
	]
}